:020000040000FA
:1000000030030020D5000000F7140000ED130000BD
:1000100000000000000000000000000000000000E0
:10002000000000000000000000000000EB220000C3
:1000300000000000000000004F1B0000F122000043
:10004000012A0000F514000000000000611100000A
:10005000ED2200009B1100009D1100009F11000087
:100060000000000000000000000000000000000090
:10007000690C00009D0E0000FD290000FF29000012
:100080008F120000000000000000000000000000CF
:100090007B0F00007D0F00007F0F0000F1130000B8
:1000A000000000005D22000000000000712500003B
:1000B0009925000000000000790F000000000000FA
:1000C0000348854600F056FC004800471D350000F7
:1000D0003003002009480A4A002100A1814200D9CA
:1000E0000244084802600848804708480047FEE785
:1000F000FEE7FEE7FEE7FEE7FEE700000000002067
:100100000000000008ED00E0B5230000C100000081
:1001100030B50B46014600202022012409E00D469F
:10012000D5409D4205D31D469540491B2546954027
:1001300040191546521E002DF1DC30BD03460B431D
:100140009B0703D009E008C9121F08C0042AFAD28D
:1001500003E00B780370401C491C521EF9D2704713
:10016000D2B201E00270401C491EFBD2704700224F
:10017000F6E710B513460A4604461946FFF7F0FFA6
:10018000204610BD421E5378521C002BFBD10B7829
:100190001370491C521C002BF9D17047F8B5024668
:1001A0004A40D40F42004B0052085B089A4202D2E8
:1001B0000246084611464A0023D0C30D4A00DDB26C
:1001C000120EAD1A202D35DA49020126490AF6052C
:1001D0008A19002C00D0524220214F1B1146B940F1
:1001E0002A411018C20D9A4221D0002C17D0012D9F
:1001F00008DCDA05801AD20F8019D207DBB200F0D2
:100200000DFAF8BDDA05801A012340001B06C0185C
:1002100080185A428018CA0F1043490007E0490865
:10022000C2071143DA05801A80194008801800F0CF
:10023000EDF9F8BD61000122511A001BF7E7012218
:10024000D2075140AAE70122D2075040A6E7024652
:1002500070B54A40D30FDB0740002DD04A002AD0AA
:10026000010E140E000212020919400A520A8418E3
:10027000E50104465443000A120A2E045043A4190F
:100280004219200CC543AA18120C0125AD03521CBB
:10029000521912047F39240400D0521C104301D497
:1002A0004000491EC2B20C06C0092018401C40087C
:1002B000802A02D003E0002070BD400840000029E1
:1002C00000DA0020184370BD70B502464A40D50FD1
:1002D00040004A00ED0740085208002814D0002AC8
:1002E00012D0C40DD30D41020120C0055202490AAB
:1002F000520AE41A091812187D34914201D3641C81
:1003000000E04900002C01DA002070BD002391427A
:1003100001D3891A0343400849000028F7D1002976
:100320000AD0914202D10121C90705E0914201D2D0
:10033000012101E00121C943E005C018401900F086
:1003400065F970BDF0B507460846584087B0C00F44
:10035000049048000E46590040084908BC1A8841DC
:1003600005D2384631461E4617460B46024658000F
:10037000400810434CD0300D039040055900400D0B
:10038000490D0590401A0290402872DA18030121A5
:10039000000B09050843019004980092002805D03D
:1003A0000199524200208841009201900298402118
:1003B0000A1A0199009800F0F5F805460C466B46BC
:1003C00007CB00F010F9C0197141039A0E0D0023FC
:1003D000D71756401A467A40164344D0049A002A4A
:1003E0002DD0029A012A039A15DC1205C01A9141F8
:1003F00001263605001C7141D20F059ED2070093DD
:10040000019202962A46234600F04EF907B0F0BD4D
:1004100038463146FAE71605224A0F46B218C01A86
:10042000B74101210905001C4F4100187F411146C9
:1004300018187941E20F10436D19644113E0E20787
:100440006D0815436408C2071443039A0126120578
:10045000C01A91413605001C7141CE074008304357
:100460004908C01851412A46234600F010F9CDE74B
:10047000FFE7049801224000C117121A00238B41A4
:1004800004983146C417381AA141EEE730B401246C
:10049000E407634030BC55E730B40124E407614011
:1004A00030BC4FE70000E0FF10B500229623114654
:1004B00000F0B4F810BD410040020122400AD2050C
:1004C000090E80187F2901DA00207047962903DC85
:1004D0009622511AC84070479639884070470000EC
:1004E0004A0009030123090B1B051943094B10B5E9
:1004F000520D9A4201DA002010BD064B34339A4265
:1005000003DC9A1A00F05EF810BD034951188840C8
:1005100010BD0000FF030000CDFBFFFFC20FD2079C
:10052000400040080BD0C10D0723DB01C918400271
:100530000905400A1143C2084007114370470020D3
:1005400001467047F0B51FB40646002082B005464C
:100550004024019100901BE0019922460F4630464D
:1005600000F030F8049A059B801A994110D3104688
:100570001946224600F016F8361A8F410197224696
:1005800001200021009F00F00DF838184D41009027
:100590002046641E0028DFDC019B00982946324675
:1005A00007B0F0BD10B5202A04DB0146203A914087
:1005B000002010BD914020239C1A0346E3401943BC
:1005C000904010BD10B5202A04DB0846203AD040E8
:1005D000002110BD0B46D340D0402024A21A9140E8
:1005E0000843194610BD10B5202A06DBCB17084674
:1005F000203A1041C1170B4306E00B461341D0408F
:100600002024A21A91400843194610BD002904DA9B
:10061000401C490001D140084000704770B40024DC
:10062000050C05D11024000402D1002921D0112489
:10063000050E01D100020834050F01D10001241D6F
:10064000850F01D18000A41C002801DB4000641C40
:10065000002908D020252E1B0D46F540A14000D0D2
:1006600001212943084301061B1B000ADB1D02D59B
:10067000002070BC7047DB05181880180029F8DAD4
:10068000401C4900F5D170BC40084000704710B5CF
:10069000002B08DA0024401C614192185B411A4388
:1006A00001D14008400010BDF0B51FB482B005462E
:1006B0000C0003D0084602F0C9F902E002F0C6F9C6
:1006C00020300246009021462846FFF76BFF049B2E
:1006D000059A04460F4618431143084314D01846A0
:1006E00010431BD0009840210A1A18460599FFF7BD
:1006F00069FF05460E46009A05990498FFF752FFD8
:10070000084305D0012004E02046394607B0F0BD7B
:100710000020C11705430E432C43374300990E9820
:100720006305401A7905E40A00220C43FD0A0A30E9
:1007300002D500200146E9E70105101969410C9C2A
:100740000D9D00196941FFF7A2FFDFE7F0B51FB467
:1007500088B00B990998002448400999C00F4900B6
:1007600049080991C0070B990090490049080B916D
:1007700009990898A64608431CD00B990A98084383
:1007800018D0099801244000420D4800410D0998F5
:1007900024050003000B204309900B980003000B75
:1007A00020430B9050181C49401800220190144619
:1007B000104605E0002001460DB0F0BD032801DA27
:1007C000034600E003239C46C11A0AAE0AE05F001C
:1007D00008ADED5B4F00F75B7D430027AA187C4115
:1007E000491C5B1E6145F2DD410004AB5A522104F5
:1007F000120C0A43240C401C0828DFDB01980290ED
:100800000099704601910090059B049A07990698FB
:10081000FFF74AFFD0E700000DFCFFFFF0B50C46E4
:100820005C4085B0E40FE40703944C0000266408A4
:1008300059009446490802460296224321D0624656
:100840000A431ED06200570D4A000E032303550DC4
:10085000012402462C492405781B1B0B360B40183B
:1008600023432643614600901C46501AB44103D3EB
:100870000098401C009002E0921800985B4100280C
:1008800003DA0020014605B0F0BD00200121090572
:100890000746864611E064461D46141BB54106D343
:1008A0006546521BB341744607430C43A646CD0729
:1008B00040084908284392185B4105460D43EAD198
:1008C0001046184313D06046194650407140084303
:1008D00006D06046101AB34106D20122002306E07A
:1008E00000220123DB0702E00122D24353100098CB
:1008F00074460105381C6141029C039D0019694141
:10090000FFF7C5FEBFE70000FD0300004A00090332
:100910000123090B1B0519430A4B10B5520D9A42CE
:1009200002DA0020014610BD064B34339A4203DC44
:100930009A1AFFF747FE10BD034BD218FFF732FE9D
:1009400010BD0000FF030000CDFBFFFF10B5002924
:1009500004DB0124E40740428C412146002B04DBE8
:100960001C460123DB075242A341994200D1904229
:1009700010BD0000064C0125064E05E0E36807CCDB
:100980002B430C3C98471034B442F7D3FFF79CFB41
:10099000183E0000383E0000014800687047000023
:1009A0001800002010B500200A4908700A49087094
:1009B00018210A48FFF7DBFB4B20800100F0B6FC52
:1009C000002803D106A002F01DF802E00DA002F0FD
:1009D00019F810BD1400002015000020CC000020E4
:1009E0004572726F723A20484C5738303332205576
:1009F00041525420496E6974204661696C656421D6
:100A00000D0A0000484C57383033322055415254BB
:100A100020496E697469616C697A65642E0D0A00FB
:100A2000F0B58BB018222A4905A8FFF787FB08A864
:100A3000C47A05A800F03EFB0546AC4240D16946A9
:100A4000887E0004C97E090208436946097F08437D
:100A5000064608A9C878000409790902084308A9CC
:100A600049790843074608A88079010408A8C07995
:100A70000002084308A9097A084304901548039026
:100A800015480290134801903046FFF70DFD009085
:100A90000399FFF7DCFB114908603846FFF704FDB6
:100AA00000900299FFF7D3FB0D4908600498FFF707
:100AB000FBFC00900199FFF7CAFB0A49086004E0BB
:100AC0002A46214608A001F09DFF0BB0F0BD0000B2
:100AD000CC0000200AD7233C6F12833A1C00002070
:100AE0001800002020000020484C57204368656310
:100AF0006B73756D204572726F722120526563763B
:100B00003A203078253032582C2043616C633A20EB
:100B10003078253032580A000D2803D00E2801D035
:100B20000F2806D10C4909680122520311430A4AD1
:100B300011600F2806D10849096810221143064A9E
:100B4000116007E00E2805D10349096820221143EE
:100B5000014A116070470000002401400249896B7E
:100B60008143014A91637047002401400648406870
:100B7000042188430449486008464068042108432A
:100B800001494860704700004000014000B595B041
:100B90000121102000F0DCFF0121042000F0F8FF0B
:100BA000122001900020029001A90920C00600F047
:100BB000F7FAFFF7DBFF0120049000200590069074
:100BC00005210902079100210891C0210991002106
:100BD0000A910B910C910D910EA800F023F904A835
:100BE00000F0D6F800F01EF802A001F00BFF012083
:100BF00015B000BD414443204472697665722049B6
:100C00006E697469616C697A65642028504130317D
:100C10002F4348312C20504130342F434832290D86
:100C20000A00000000B50648006801210843044995
:100C3000086000BF802000F00BF80028FAD000BD4B
:100C4000002401400148006A80B27047002401403E
:100C500001460448C06B0840002801D001207047BD
:100C60000020FCE700240140704700008268016911
:100C7000114342681143C26811434269114302683B
:100C80001143174A1268174B1A401143144A116056
:100C9000114649684022914382691143104A5160CC
:100CA000C16900290BD01146096903221202914340
:100CB00001235B02C2691A431143094A1161C168E9
:100CC00080290CD10849096B20221143064A11637F
:100CD0000649C969102291431031044AD161704715
:100CE0000024014011C0FFFF000001400004004843
:100CF00010B592B004460121042000F049FFFFF72F
:100D000091FF002003900521090204910021059123
:100D1000C021069100210791089109910A9101943F
:100D200002900BA800F07EF801A800F031F8012035
:100D300000F03CF800BF0120FFF78AFF0028FAD03E
:100D40000120FFF70BFFFFF77DFF12B010BD000081
:100D500010B5044620460830FFF788FF2068FFF7EB
:100D6000DBFE01214903E06A884203D12046283096
:100D700000F02EF8216860680843044949682F2272
:100D8000914308430149486010BD00000024014020
:100D900010B504462046FFF7DBFF034800680E212C
:100DA00088430149086010BD00240140002806D096
:100DB0000649896801221143044A916005E003490C
:100DC000896849084900014A916070470024014040
:100DD000026841681143124A52682F231B029A434A
:100DE00011430F4A5160C26881681143026911437F
:100DF0000B4A526B38239A431143094A51634169A4
:100E00005161816991610F2212020168914205D1FD
:100E10000349096810221143014A1160704700001C
:100E2000002401400021016041608160C1600161D6
:100E3000024941610021816170470000FF0F0000FD
:100E4000C143014A51617047002C01400449C968FF
:100E500049084900C207D20F1143014AD1607047C7
:100E6000002C01400649096B012212039143020341
:100E700001231B031A401143014A1163704700000C
:100E8000002C01400146044800690840002801D0B8
:100E9000012070470020FCE7002C014010B54020E5
:100EA000FFF7F0FF002802D04020FFF7C9FF10BD78
:100EB0004268016811430269114382681143027B51
:100EC000002A01D0802200E0002211434269114330
:100ED0000F4AD2680F4B1A4011430D4AD160816905
:100EE00011602122125CC169002A02D0FF22013266
:100EF00000E0002211432022125C002A02D00122CD
:100F0000520200E000221143014A51637047000081
:100F1000002C01400B8FFFF7416809030268D203E0
:100F20001143114AD2690F231B039A4311430E4AFE
:100F3000D16181680903427B002A01D0802200E050
:100F400000221143027B002A02D00122520200E05B
:100F500000221143044A926A6523DB019A4311433C
:100F6000014A916270470000002C014001498860ED
:100F700070470000402C0140704770477047704731
:100F8000F8B5E1252D01114E1927BF014B20C000F6
:100F900000900120FFF7ACFE04462846844201DBA6
:100FA0000120F8BD0948844201DB0220F9E719203D
:100FB0008001844201DB0320F3E74B20C000844220
:100FC00001DB0420EDE70520EBE70000280A000024
:100FD000FEB50546002D01D164242FE0062D01DA6F
:100FE0000A242BE0332D10DC2846FFF75DFA19495F
:100FF0000190FFF769F907463F210906FFF7CEF890
:101000000646FFF758FAC4B218E0502D15DC284602
:10101000FFF74AFA10490090FFF756F98521C905F4
:101020000190FFF7BBF807463F210906FFF7B6F826
:101030000646FFF740FAC4B200E06024642C05D0F5
:10104000052C00DA0524602C00DD6024204600F029
:101050005BFDFEBD9A99193F000020400EB540206F
:1010600000902020019064217D20C00000F08CFCC5
:10107000002802D107A001F0C5FC00F063FD0220AA
:1010800000900020019069460920C00600F088F811
:101090000EBD00004572726F723A204350205057C7
:1010A0004D20496E6974204661696C6564210D0AA2
:1010B0000000000001460022002003E00B5C9B18AA
:1010C0009AB2401C1728F9DBD0B2704710B5012244
:1010D0001146034800F0D5F801200249087010BD00
:1010E00000040048290000200EB5012000902020B7
:1010F00001906946024800F053F800F003F80EBD75
:101100000004004810B500220121034800F0B9F89E
:1011100000200249087010BD00040048290000208A
:1011200002A001F06FFC00BFFEE700004572726F85
:10113000723A205065726970686572616C20496E00
:10114000697469616C697A6174696F6E204661695E
:101150006C6564212048616C74696E672E0D0A000D
:10116000704700000549096B02229143891C034A1C
:10117000116303490143034A516070470000014075
:1011800000005A5A0020024008B5009000BF0099A4
:101190004A1E00920029FAD108BD70477047704777
:1011A0004A68002A04D1C2690B681A43C26167E029
:1011B000C2690B689A43C26110234A681A40102A18
:1011C0004ED102680B681A4302604A68112A07D19F
:1011D00002690B681A430261C2680B689A43C260D5
:1011E0004A68122A07D1C2680B681A43C2600269B2
:1011F0000B689A430261426A0B689A434262826AB0
:101200000B689A438262C26A0B689A43C262026B9D
:101210000B689A43026381238A681A40812A03D1AA
:10122000426A0B681A43426282238A681A40822A01
:1012300003D1826A0B681A43826284238A681A4047
:10124000842A03D1C26A0B681A43C26288238A685F
:101250001A40882A14D1026B0B681A4302630FE00C
:1012600002680B689A4302604A68202A04D14268E7
:101270000B689A43426003E042680B681A4342607D
:101280007047012A01D1C16500E081657047704750
:10129000002240210A5242210A5244210A52704738
:1012A00001464420405A402801DB012070470020BD
:1012B000FCE770B504460D462046FFF7F1FF002815
:1012C00001D0002070BD4020005B25544021095B07
:1012D000481CC117890E091889118901411A8AB25F
:1012E00040210A5372B64420005B401C81B2442066
:1012F000015362B60120E5E710B50421094801F069
:101300009DFA00280CD0074801F072FB04462146E4
:101310000548FFF7CEFF0421024801F08BFA00BF19
:1013200010BD000000440040E400002010B58AB069
:1013300004462948FFF7ACFF2848006B40210843CA
:10134000264908630846806B802108432349886347
:1013500023488069C008C000401C214988610120E1
:1013600001901120029001A91D48FFF719FF0220EA
:1013700001902020029001A91948FFF711FF0121D7
:101380001C2001F0C5FB1C20002805DBC206D20E84
:1013900001219140134A116000BF04940021684666
:1013A0008182C18200F088FC06900021684681831A
:1013B000C18308210184002181840221418404A980
:1013C000094801F05BFA01220421074801F048FABC
:1013D00001200AB010BD0000E40000200000014020
:1013E0000008004800E100E00044004000BFFEE7C4
:1013F000704700000148024908607047CCCC0000EB
:10140000003000401449154A116015491160017AF5
:10141000012909D142680168114310221143C268B1
:1014200011430E4A516006E0426801681143C268E8
:1014300011430A4A5160094A016991604169116189
:1014400000BF0649C9684907490F0029F9D1054974
:10145000024A116070470000CCCC00000030004010
:101460005555000066660000014802490860704753
:10147000AAAA0000003000400148024908607047F5
:10148000555500000030004070B5054615480178FC
:101490007D20C000FEF73CFE064631462846FEF79A
:1014A00037FE0446601E1049884201D901200CE035
:1014B000601E0E4948610321081F01F065FB0020F2
:1014C0000A498861072008610020002800D070BD0B
:1014D0000021481E01F058FB00200549086000BFAC
:1014E000F5E7000034000020FFFFFF0000E000E00F
:1014F000300000207047704770B500240EE0214690
:10150000002000F027F9002504E0002000F0D4F9C5
:10151000681CC5B2802DF8DB601CC4B2082CEEDB61
:1015200070BD000000B589B00121602000F010FB03
:101530000121080200F02CFB1820069020200790C3
:1015400006A98148FFF72CFE012006902020079075
:1015500006A97E48FFF724FE7C4880690721090719
:1015600088430321090740187849886176488069D3
:101570000721090288430321090240187249886142
:101580007248006880218843704908606E4800688E
:10159000042188436C4908606C4840688021884376
:1015A0006A49486068484068042188436649486041
:1015B0006648C069802188436449C8616248C0693F
:1015C000042188436049C8616048006840084000C1
:1015D0005E49086008464068400840004860084688
:1015E000C06940084000C861574800680821884326
:1015F00055490860084640680821884352494860B8
:101600000846C069082188434F49C86108460068F8
:10161000102188434C4908600846406810218843DF
:10162000494948600846C069102188434649C86155
:10163000012211464548FFF724FE012208214248B5
:10164000FFF71FFE012210213F48FFF71AFE01A8F5
:1016500000F02AFE01218903684681800421C180AF
:1016600007218902018100214181818101214902F3
:10167000C181102101820021418201A800F0F0FD0A
:10168000012000F0D1FD002210212F48FFF7F9FDC5
:101690004B208001FFF778FD012210212A48FFF737
:1016A000F0FD2B48FFF770FDAE2000F0EBF8D520E1
:1016B00000F0E8F8F02000F0E5F8A82000F0E2F8EB
:1016C0003F2000F0DFF8D32000F0DCF8002000F02D
:1016D000D9F8402000F0D6F88D2000F0D3F814207F
:1016E00000F0D0F8202000F0CDF8002000F0CAF87B
:1016F000A12000F0C7F8C82000F0C4F8DA2000F0FC
:10170000C1F8122000F0BEF8812000F0BBF8FF20E5
:1017100000F0B8F8D92000F0B5F8222000F0B2F8B7
:10172000DB2000F0AFF8202000F0ACF8A42000F09F
:10173000A9F8A62000F0A6F8FFF7DEFEAF2000F023
:10174000A1F8012009B000BD0008004800040048CD
:1017500080BB000070B504460D462946B031C8B2C2
:1017600000F090F82007000F00F08CF821111022F3
:101770001143084600F086F870BD0000FFB581B047
:1017800007460D460026002403982038C6B27F2F56
:1017900002DD0027681CC5B20498082822D129461A
:1017A0003846FFF7D7FF002407E031010919174A2F
:1017B000505C00F081F8601CC4B2082CF5DB681C9A
:1017C000C1B23846FFF7C6FF002408E0310109190D
:1017D00008310E4A505C00F06FF8601CC4B2082C4F
:1017E000F4DB10E029463846FFF7B4FF002408E098
:1017F00006217143064A8918085D00F05DF8601CF7
:10180000C4B2062CF4DB05B0F0BD0000E8370000E0
:10181000C0350000FFB581B005460E461C460027C6
:10182000082C01D1082000E00620009023E0039856
:10183000C25D234631462846FFF7A0FF00982818CE
:10184000C5B280210098081AA84207DA0025082CA2
:1018500001D1022000E001208019C6B2082C01D17C
:10186000022000E001200821081AB04201DA002617
:101870000025781CC7B20398C05D0028D7D105B0F9
:10188000F0BD000010B50446002208210848FFF70B
:10189000F8FC002201210748FFF7F3FC204600F086
:1018A00011FD012211460348FFF7EBFC10BD0000BB
:1018B000000800480004004810B504460122082131
:1018C0000848FFF7DEFC002201210748FFF7D9FC9A
:1018D000204600F0F7FC012211460348FFF7D1FC37
:1018E00010BD00000008004800040048F0B585B0B5
:1018F0001C4D1D4EAF27FF001C480490FF20F53003
:10190000039040000290C8200190FF20F530009025
:101910000220FFF7EDF904462846844205DB3046F5
:10192000844202DC0D2005B0F0BDAF20C00084422F
:1019300004DB0E48844201DC1420F4E7FF20F5307C
:10194000844204DB4000844201DC2020EBE7C82C09
:1019500005DBFF20F530844201DC3F20E3E7002077
:10196000E1E70000980800008C0A00006C07000006
:101970000EB5102000900020019069460920C00695
:10198000FFF70EFC0EBD0000F0B593B005460E4605
:1019900000200290002400270190002D01D0642E29
:1019A00002DD002013B0F0BD062000F00DF9524812
:1019B000406B80210843504948630846006B102162
:1019C00008434D4908630920C006806907210906BC
:1019D00088430121890640180921C90688618020B1
:1019E0000590202004904020039003A90920C00600
:1019F000FFF7D6FB00F060F902900024601C6843FA
:101A000001460298FEF784FB401E87B20DE0601C81
:101A100084B2601C684301460298FEF779FB401EC1
:101A200087B2FF2C01DD0020BCE734488742EEDCA2
:101A3000002008A90875012040030C9000200A909E
:101A40000B90002C01D10E9024E0012C02D110202B
:101A50000E901FE0042C02DA20200E901AE0082CD1
:101A600002DA30200E9015E0102C02DA40200E90A1
:101A700010E0202C02DA50200E900BE0402C02DA0D
:101A800060200E9006E0FF2C02DC70200E9001E03A
:101A9000002087E700200F9010971190002110A8D8
:101AA000017241720AA8FFF703FA012108A84171E7
:101AB00001200890002108A801710620079000204D
:101AC000069006A8FFF728FA791C7143084664219E
:101AD000FEF71EFB80B201900198FFF747FA012044
:101AE000FFF7C0F906480560064806700120FFF7B9
:101AF000ADF9012056E7000000000140FFFF0000A3
:101B00000C0000201000002070B5044600250026BF
:101B1000642C01DD002070BD0848006885B2691C96
:101B2000614308466421FEF7F3FA86B23046FFF7B8
:101B30001DFA034804700120EDE70000002C01406D
:101B40001000002010B50120FFF780F910BD70478C
:101B5000002905D0054A126B0243044B1A6304E0C6
:101B6000024A126B8243014B1A6370470000014026
:101B7000002905D0054A926B0243044B9A6304E0A6
:101B8000024A926B8243014B9A6370470000014006
:101B9000002905D0054A526B0243044B5A6304E006
:101BA000024A526B8243014B5A6370470000014066
:101BB0000146044800690840002801D00120704710
:101BC0000020FCE700000140C1020A4A128B1143C9
:101BD000094A916111464968084A1143064A516011
:101BE00000BF054989690122D20311409142F8D111
:101BF00070470000A00710000000014001005A5A81
:101C000070B504460C48006880B20C494018C00802
:101C1000C00020430849086000F012F8054600F0B3
:101C20005BF8054800684007400FA04201D0012042
:101C300070BD0020FCE700000000014000005A5A7F
:101C400070B5002400260025164800684607760F68
:101C5000144880694004050F002E04D0012E0AD0DC
:101C6000032E0CD109E0A8000F4A11580F48FEF7C7
:101C70004FFA04460BE00E4C09E00E4C07E0A800BA
:101C8000094A11580948FEF743FA044600BF00BF4D
:101C9000044800680006410F2046C840044620461C
:101CA00070BD000000000140D83D0000006CDC0267
:101CB0000024F4002080000010B50024FFF7C0FFCE
:101CC000044604480068C006810F2046C840044608
:101CD000204610BD00000140014908607047000027
:101CE0003800002070B504460D46204600F026F866
:101CF000002801D0002070BD4220005B205C2870CD
:101D00004221095B481CC117890E091889118901F4
:101D1000411A8AB242210A5372B64420005B401E27
:101D200081B24420015362B60120E4E70022402141
:101D30000A5242210A5244210A5270470146442065
:101D4000405A002801D1012070470020FCE70146DD
:101D50004420405A402801DB012070470020FCE766
:101D600070B504460D462046FFF7F1FF002801D06C
:101D7000002070BD4020005B25544021095B481CB9
:101D8000C117890E091889118901411A8AB24021A7
:101D90000A5372B64420005B401C81B244200153B8
:101DA00062B60120E5E700000148007870470000B6
:101DB0002400002010B5FFF751F9FFF7D9FDFFF718
:101DC00093F9FEF7EFFD0120054908700020FFF7A9
:101DD000FFF8FFF797F903A000F014FE10BD000014
:101DE000240000204368617267696E672053746144
:101DF0007465204D616368696E6520496E69746918
:101E0000616C697A65642E2053746174653A204967
:101E1000444C450A0000000070B5FFF7B1F80446D5
:101E20005E4805780078030000F027FE079D054610
:101E3000626989909C00022C03D0032C01D0042CF1
:101E40002FD1FFF753FD5649088008460088002827
:101E500004D1062553A000F0D5FD2AE020265048E5
:101E60000088B04202DA4E48008800E0304653490C
:101E7000087008460078FFF7ABF8504802784848E9
:101E800001884FA000F0BEFD022C01D1022507E021
:101E9000032C01D1032503E0062556A000F0B2FD76
:101EA00007E0052C01D0062C03D106255CA000F02C
:101EB000A9FDFFF727F960E0032C04D1032561A0F9
:101EC00000F0A0FD11E0012C07D101250020FFF753
:101ED0007FF865A000F096FD07E0052C01D0062CE8
:101EE00003D106254EA000F08DFDFFF70BF944E06D
:101EF000FFF7ECF8042563A000F084FD3DE0022C20
:101F000006D1FFF7FFF8022568A000F07BFD15E081
:101F1000012C09D1FFF7F6F801250020FFF758F84A
:101F200071A000F06FFD09E0052C01D0062C05D151
:101F3000FFF7E8F806257CA000F064FD1DE0FFF740
:101F4000E1F8062588A000F05DFD16E0FFF7DAF85D
:101F50000020FFF73DF8012C03D192A000F052FDC4
:101F600001250AE000BF9FA000F04CFDFFF7CAF872
:101F70000020FFF72DF8012500BF00BF07480078BB
:101F8000854209D02A4605480178A0A000F03AFD14
:101F90000248057000F0B4FB70BD00002400002072
:101FA00026000020534D3A205050204661756C7435
:101FB000204465746563746564210A00280000206C
:101FC000534D3A2056656869636C6520436F6E6EA9
:101FD00065637465642E204361626C653A202575E3
:101FE000412C204D6178204368617267653A202555
:101FF00075410A00534D3A205374617465204420A2
:102000006465746563746564202D20747265617401
:10201000696E67206173204661756C742E0A00003A
:10202000534D3A204350204661756C7420446574CA
:1020300065637465642028537461746520452F4678
:1020400029210A00534D3A204368617267696E671F
:1020500020526571756573746564202853746174CA
:10206000652043292E0A0000534D3A2056656869C1
:10207000636C6520446973636F6E6E656374656439
:102080002E0A0000534D3A20436F6E746163746FE3
:102090007220436C6F7365642E20436861726769B8
:1020A0006E67204163746976652E0A00534D3A20AD
:1020B0004368617267696E672053746F70706564FE
:1020C0002062792045562028537461746520422986
:1020D0002E20436F6E746163746F72204F70656E53
:1020E00065642E0A00000000534D3A205665686969
:1020F000636C6520446973636F6E6E6563746564B9
:1021000020647572696E67204368617267696E67E3
:102110002120436F6E746163746F72204F70656E1F
:1021200065642E0A00000000534D3A2043502046BB
:1021300061756C7420647572696E672043686172A2
:1021400067696E672028537461746520452F46299E
:102150002120436F6E746163746F72204F70656EDF
:1021600065642E0A00000000534D3A2053746174D8
:10217000652044202856656E74696C6174696F6EC1
:1021800029206E6F7420737570706F727465642E81
:1021900020456E746572696E67204661756C742E99
:1021A0000A000000534D3A204661756C7420636C40
:1021B0006561726564202843502053746174652002
:1021C00041206465746563746564292E20526574CA
:1021D00075726E696E6720746F2049444C452E0AF3
:1021E00000000000534D3A20496E76616C6964200E
:1021F00053746174652120466F7263696E67207441
:102200006F2049444C452E0A00000000534D3A20EF
:102210005374617465204368616E6765202564208E
:102220002D3E2025640A000005490968402291439B
:10223000820140231A401143014A11607047000097
:10224000003001400146044800690840002801D0E0
:10225000012070470020FCE700300140704700007B
:1022600001888288114342891143028A1143C2893D
:1022700011438289114342881143C2881143028964
:102280001143044A1268044B1A401143014A116079
:1022900070470000003001404000FFFF01498861A5
:1022A000704700000030014000210180418007217B
:1022B000890281800021C180018141818181C181A8
:1022C0000182704710B5044600BF0120FFF7BAFF36
:1022D0000028FAD02046FFF7E1FF00BFFF200130C1
:1022E000FFF7B0FF0128F9D010BD7047704700001C
:1022F00010480068401C0F4908600F480068401CE7
:102300000D490860084600680A2804D300200860C8
:1023100001200A4908700A480068401C0849086002
:1023200008460068642804D300200860012005499D
:10233000087070472C0000200400002000000020DE
:10234000080000200100002010B50020002100221C
:10235000134B1B689A07920F002A04D0012A04D05D
:10236000032A06D103E00F4805E00F4803E00F48B9
:1023700001E00C4800BF00BF094B1B6870242340DC
:1023800019090346CB400A4C2360002902D1234699
:10239000186003E00346CB40054C236010BD0000ED
:1023A00000000140006CDC020024F40020800000EA
:1023B0003800002010B50120FEF7D4FE0620FFF7FC
:1023C00003FC00BF0120C002FFF7F2FB0028F9D098
:1023D0000020FFF715FCFFF7B7FF0B49098B4805F5
:1023E000400D0A498969C90AC9020143074A916136
:1023F0000549498B8805800D1146096A890A8902B9
:102400000143116210BD0000A00710000000014050
:1024100010B586B00124FFF785F8002803D1002409
:10242000204606B010BD4B20C00100F0EBF800289C
:1024300002D100242046F4E732217D20C000FFF7BE
:10244000A3FA002805D11AA000F0DCFA00242046E7
:10245000E7E7FEF79BFB002805D11CA000F0D2FAAD
:1024600000242046DDE701212020FFF781FB032027
:1024700000909B20049000200190694608721C483F
:10248000059000200390FEF7F7FF6846FEF7BAFFBD
:1024900018480068FEF7F8FF17A000F0B3FA1FA075
:1024A00000F0B0FA29A000F0ADFA2046B9E700002C
:1024B0004572726F723A2050574D20496E697420F0
:1024C0004661696C6564210D0A0000004572726FF7
:1024D000723A204144432044726976657220496E05
:1024E0006974204661696C6564210D0A0000000072
:1024F000FF0F0000380000205379735469636B208C
:10250000496E697469616C697A65642028316D73FC
:10251000207469636B290D0A000000000D0A4357FF
:102520003332463030332044726976657273204905
:102530006E697469616C697A65642053756363655B
:10254000737366756C6C790D0A000000495744542A
:1025500020496E697469616C697A656420285469E0
:102560006D656F7574207E3530306D73290D0A00EE
:1025700010B50421074800F06AF9002801D000F0E6
:102580000FF80121034800F062F9002801D000F0A3
:1025900021F810BD0038014010B5FEF7ADFE10BDAA
:1025A00010B50421094800F049F900280CD007486B
:1025B00000F01EFA044621460548FFF7D1FB04212E
:1025C000024800F037F900BF10BD0000003801409C
:1025D0008600002008B569460848FFF783FB0028FD
:1025E00005D068460178064800F006FA04E00022AB
:1025F0000121034800F034F908BD0000400000202C
:102600000038014010B58AB004463548FFF78EFB0C
:102610003448FFF78BFB3448006B102108433249E4
:1026200008630846006B202108432F4908630846C9
:10263000406B491508432C4948632C4880690721A1
:1026400009028843FF300130284988610920C0060B
:102650008069C008C000401C0921C90688610420A7
:1026600001902020029001A92048FEF799FD012049
:1026700001901120029001A90920C006FEF790FDEB
:1026800000211B2000F008FA1B20002805DBC206F1
:10269000D20E01219140164A116000BF049400211E
:1026A00068468182C182FFF707FB069000216846D9
:1026B0008183C183018481840321418404A90D485D
:1026C00000F0DCF8012204210A4800F0C9F80022D9
:1026D0000121084800F0C4F801200AB010BD000034
:1026E0004000002086000020000001400004004857
:1026F00000E100E00038014010B5FEF7FDFE10BD1E
:10270000F0B58DB0FFF750FB044600271422304986
:1027100008A8FDF713FD14222D49143103A8FDF775
:102720000DFD230000F0A9F907050A0F14191E2357
:10273000280028A108A8FDF725FD22E027A108A868
:10274000FDF720FD1DE028A108A8FDF71BFD18E0FE
:1027500028A108A8FDF716FD13E028A108A8FDF799
:1027600011FD0EE028A108A8FDF70CFD09E029A144
:1027700008A8FDF707FD04E028A108A8FDF702FD61
:1027800000BF00BF042C11D1FEF706F907463846FA
:10279000FDF7C4FE05462A460B4622A1684600F016
:1027A00041F9694603A8FDF7EDFC03E01FA103A86A
:1027B000FDF7E8FC062308AA01210020FFF72AF80C
:1027C000062303AA02210020FFF724F80DB0F0BD74
:1027D00098350000494E49540000000049444C45DA
:1027E0002028412900000000434F4E4E2028422956
:1027F000000000005245512028432900434841521F
:10280000474528432900000056454E5420284429B6
:10281000000000004641554C54210000554E4B4EDF
:102820004F574E00252E316620410000302E3020BB
:1028300041000000026A8A43026270470246D06982
:102840000840002801D0012070470020FCE7024624
:10285000D0690840002801D0012070470020FCE723
:1028600010B5002A03D083680B43836004E08368BB
:10287000CC43A4B22340836010BD0000F0B589B002
:1028800005460C460026002008900027A088A18954
:102890000843E1890843218A0843618A084329687B
:1028A000514A114008432860E088A18A08436968BA
:1028B000C3229200914308436860A08800282FD16A
:1028C00021680801FDF7F0FD0790A068FDF7ECFD19
:1028D00006900799FDF7F8FC07463846FDF7EBFD33
:1028E00086B23046FDF7E0FD39460190FDF7ABFCBE
:1028F0008321C9050290FDF7AAFC0390FDF70EFEA7
:1029000000223A4B05910490FDF71CFD07910690BB
:10291000FDF7E6FD80B20890EE600898286160E05F
:10292000A0880121490288421BD12168C800FDF717
:10293000BBFD0290A068FDF7B7FD01900299FDF77D
:10294000C3FC0390FDF7EAFD0022284B059104909B
:10295000FDF7F8FC07910690FDF7C2FD86B2EE6028
:102960003FE0A0880121890288421BD121688800AC
:10297000FDF79AFD0290A068FDF796FD019002997F
:10298000FDF7A2FC0390FDF7C9FD0022174B05914E
:102990000490FDF7D7FC07910690FDF7A1FD86B2E4
:1029A000EE601EE02068FDF77FFD0290A068FDF755
:1029B0007BFD8721C9050090FDF749FC0190029934
:1029C000FDF782FC0390FDF7A9FD0022074B05915E
:1029D0000490FDF7B7FC07910690FDF781FD86B2E4
:1029E000EE6009B0F0BD0000C0F8FFFF0000E03F5E
:1029F0000146486AC0B270478162704770477047AD
:102A0000704700000FB410B503A9044B044A0298A4
:102A100000F0C0F910BC08BC04B01847D93400005D
:102A20003C0000200FB410B504A9074B02AA03987C
:102A300000F0B0F9044602A9002000F047FD20464E
:102A400010BC08BC04B01847CD3400002021020C93
:102A500001D010211046020A01D01046083902099F
:102A600001D01046091F820801D01046891E420875
:102A700001D0881E7047081A704730B47446641E2F
:102A80002578641CAB4204D3635D5B00E31830BC63
:102A900018471D46F8E7000010B5002819DB1A4A50
:102AA00003231B02D21883089B00D2588307DC0E35
:102AB000FF23A3409A438B071B0E8407E40EA34019
:102AC0001A43114B032424021B198408A4001A5131
:102AD00018E00E4A03071B0F083B9B089B00D258C7
:102AE0008307DC0EFF23A3409A438B071B0E84074A
:102AF000E40EA3401A43054B0407240F083CA40826
:102B0000A4001A5110BD000000E100E01CED00E03F
:102B100010B5002819DB1A4A03231B02D2188308B8
:102B20009B00D2588307DC0EFF23A3409A438B07F8
:102B30001B0E8407E40EA3401A43114B0324240206
:102B40001B198408A4001A5118E00E4A03071B0F32
:102B5000083B9B089B00D2588307DC0EFF23A34051
:102B60009A438B071B0E8407E40EA3401A43054BC0
:102B70000407240F083CA408A4001A5110BD00004B
:102B800000E100E01CED00E010B5002819DB1A4A56
:102B900003231B02D21883089B00D2588307DC0E44
:102BA000FF23A3409A438B071B0E8407E40EA34028
:102BB0001A43114B032424021B198408A4001A5140
:102BC00018E00E4A03071B0F083B9B089B00D258D6
:102BD0008307DC0EFF23A3409A438B071B0E840759
:102BE000E40EA3401A43054B0407240F083CA40835
:102BF000A4001A5110BD000000E100E01CED00E04F
:102C000002E008C8121F08C1002AFAD170477047B5
:102C1000002001E001C1121F002AFBD17047000013
:102C2000F0B51FB486B00998089A030D002102433D
:102C300014D05148514A18185043051411980128CE
:102C400010981AD0281A401C00264D4F4D49009666
:102C500001910490002812DA444211E011980124F5
:102C600049A3012801D11098C1430698119A8460A4
:102C70000360C26041600BB0F0BD4042E4E704462F
:102C8000210500203F4A001C51410391029012E0AF
:102C9000E00707D032463B4601990098FDF756FD04
:102CA0000191009032463B4610461946FDF74EFD15
:102CB00006460F466410002CEAD10498039B0028B6
:102CC000029A0999089806DAFDF740FD019B009ADF
:102CD000FDF73CFD05E0FDF7A1FD019B009AFDF726
:102CE0009DFD04460E460022284BFDF72FFE03D81B
:102CF0000020C043014607E00022254B2046314614
:102D0000FDF720FBFDF702FE102409E0002C0ADB92
:102D10000A220023FDF716FC079B30321A55641E69
:102D200002460A43F2D11122641C079B121B1C1994
:102D3000119B012B03D0012308430ED10AE0084365
:102D400004D0112010900020119077E71098151AE8
:102D50006D1E0BE01098824202DD00236D1C03E023
:102D6000824201DA00236D1E002BEED006981199E5
:102D70008260C16030C07EE701FCFFFF104D0000A3
:102D8000000014400000F03F300000000000F0435D
:102D90000000E03FFFB597B00646002518E2252861
:102DA00077D100242746FD49049400E00443761CB3
:102DB00032780120203A90400842F7D130782A2812
:102DC0000ED00222307801463039092916D80499EC
:102DD0000A235943303940181443761C0490F1E714
:102DE000189802C804911890002904DA01204003C1
:102DF00004434842049002200443761C30782E2875
:102E000014D1042004437078761C2A2809D118981C
:102E1000761C80C8189009E00A214F43303FC7193B
:102E2000761C3078014630390929F5D930786C287C
:102E300010D006DC4C281AD068280ED06A2817D18A
:102E400004E0742813D07A2812D110E00120400544
:102E500004430CE00121090501E0032109050C43AD
:102E60007178814203D1012000052418761C761C5C
:102E70003078119066280BD013DC58287DD009DCFF
:102E800000287BD04528F6D04628F4D047281AD110
:102E9000A5E118E0632835D0642870D0652812D1E8
:102EA0009DE170286CD008DC6728F1D069287BD0C0
:102EB0006E280DD06F2806D1BAE073282ED0752861
:102EC00071D0782859D01A9A199990476D1C7EE1D3
:102ED0006002400F022809D003280DD0042818985A
:102EE00001680DD00D60001D189070E11898EA1768
:102EF00001680D604A60F6E7189801680D80F2E7F6
:102F00000D70F0E718986A4601781172001D18904C
:102F10000020507202A80090012005E0189802C815
:102F2000189000200091C04361070DD5002101E0F9
:102F30000199491C0191B94212DA8142F8DB009AE9
:102F4000515C0029F4D10BE0002101E00199491CFA
:102F500001918142FADB019A0099895C0029F5D13F
:102F6000019904981A9B471A21463846199A00F08D
:102F700097FA0199401945180BE04FE02CE113E056
:102F80004EE0009800990078491C00911A9A19990E
:102F900090470198401E0190401CF2D121463846CE
:102FA0001A9B199A10E137E00A2000210090019144
:102FB0006002410F022907D0189A01CA1892C2175D
:102FC0009446032908D00AE01898C01DC108C9001A
:102FD00005C91891944607E000B2C2179446042927
:102FE00002D140B2C1178C4600226146944506DAF0
:102FF0000A460021404291418C462D2102E02105E4
:1030000004D52B216A461173012103E0E10701D0A9
:103010002021F7E7029155E00A200AE0102008E09D
:10302000102000900021042004430191082703E0B0
:1030300008200021019100906002410F022907D071
:10304000189A01CA189200229446032908D008E071
:103050001898C01DC108C90005C91891944603E01D
:1030600080B2042900D1C0B200210291210729D5E4
:103070001199702906D0009A1021019B4A401A43E9
:1030800005D00EE040216A461173012108E0614637
:10309000014306D030216A46117311995173022100
:1030A0000291009A0821019B4A401A430AD16146C5
:1030B000014301D1610705D530216A461173012111
:1030C0007F1E02911199582904D035A10E910DA9A6
:1030D0000D910DE037A1F9E76146019B009AFDF7DC
:1030E00031FA0E9B8C469B5C0D9A521E0D9213700A
:1030F00061460143F0D10D9805A9081A20300190CE
:10310000600703D501200004844300E001270198F3
:10311000874201DD381A00E0002001990090411833
:10312000029809180498401A0490E00306D4214636
:103130001A9B199A049800F0B3F94519002706E084
:1031400003A81A9AC05D199990476D1C7F1C0298BC
:103150008742F5DBE0030CD521461A9B199A0498A7
:1031600000F09EF9451904E01A9A30201999904709
:103170006D1C0099481E00900029F5DC08E00D98B0
:103180000D990078491C0D911A9A199990476D1C58
:103190000199481E01900029F1DC63E10928010032
:1031A00030313233343536373839616263646566BD
:1031B000000000003031323334353637383941427F
:1031C000434445460000000000F05AF94519761CBA
:1031D0003078002800D0E2E528461BB0F0BD60073B
:1031E00000D406271898C01DC108C90048680A689D
:1031F0000831C30FDB071891190001D09CA108E02A
:10320000210501D59BA104E0E10701D09AA100E0CE
:103210009AA1430011985B08109165280CD006DC38
:10322000452809D046281DD0472841D141E06628CD
:1032300018D067283CD13CE00021112F01DB112080
:1032400000E0781C0191009008A911A8FFF7E8FCA4
:10325000139905910021119A15927F1C12980197DC
:10326000009150E00120C00703900120019008A9BF
:10327000009711A8FFF7D4FC139A14990592002225
:10328000119B009212981593059A0192002901D082
:10329000104602E0791C40180190381A01D50198B7
:1032A00004E04042401E0090781C0190C01B029038
:1032B00043E0012F00DA01270021112F01DD112049
:1032C00000E038460191009008A911A8FFF7A8FC7A
:1032D00013990591119A0021129815920091019766
:1032E00021070CD40599B94201DB019900E0019155
:1032F000012904DD159A491E515C302906D0B842D7
:1033000001DA011D05DA0121029115E00199491E3A
:10331000EDE7002805DC0099411800910199091A90
:1033200003E0019A411C914200DD01910099401A8D
:10333000401C02900120C0070390200706D4029988
:103340000198814202DB0020C043029000206946C0
:10335000C87707AF012103980337C907884224D0F3
:10336000022011902B201290039800280CDA404282
:1033700003902D20129007E00A210398FCF7C8FE65
:1033800030317F1E039039701199481E1190002929
:10339000F2DC03980028EFD1791E1298087030787B
:1033A000202108404530BF1E387006A8C01BC01D34
:1033B000039010980078002800D00120019941184E
:1033C0000298C0170918039809180498401A401E5B
:1033D0000490E00306D421461A9B199A049800F041
:1033E0005FF8451910980078002803D01A9A1999A7
:1033F00090476D1CE00324D521461A9B199A049826
:1034000000F04EF845191CE00098002807DB0099F1
:103410000598884203DD1598405C199901E01999D7
:1034200030201A9A904700986D1C401C009002981A
:10343000401E0290002804D11A9A2E201999904714
:103440006D1C0199481E01900029DDDC05E03878EB
:103450001A9A7F1C199990476D1C0399481E039076
:103460000029F4DC21461A9B199A0498ACE6000066
:103470002D0000002B0000002000000000000000D4
:10348000F8B5044600251E461746880404D405E016
:1034900039462020B0476D1C641EF9D52846F8BD7A
:1034A000FFB50446002581B01E46C80301D530276C
:1034B00000E02027880404D505E038460399B0478A
:1034C0006D1C641EF9D5284605B0F0BD0A68531C72
:1034D0000B6010707047000070B504460E46E5B2F0
:1034E00000BF0C48FEF733FC0028FAD129460948F2
:1034F000FEF736FC72B608488068C007C00F002887
:1035000004D1012211460448FFF7AAF962B6204609
:1035100070BD00004000002000380140FEF778FF39
:10352000002801D1FDF7FCFDFEF744FCFFF7E4F8AD
:10353000FDF738FAFDF7F6FFFDF75CFF00BF124814
:10354000C068C006C00F0028F9D0FDF78DFFFFF757
:10355000D7F817E00D480078002804D000200B4968
:103560000870FEF759FC0A480078002802D00020B5
:103570000749087007480078002801D0FDF750FA85
:10358000FDF772FFE6E70000003000400000002079
:10359000010000201500002053746174653A20007A
:1035A000000000000000000000000000437572727F
:1035B000656E743A2000000000000000000000006A
:1035C0000000000000000000002F000000000700C5
:1035D000070000147F147F1400242A7F2A1200623F
:1035E00064081323003649552250000005030000EB
:1035F00000001C224100000041221C000014083E73
:1036000008140008083E0808000000A06000000838
:10361000080808080000606000000020100804028C
:10362000003E5149453E0000427F4000004261514A
:103630004946002141454B31001814127F100027E4
:1036400045454539003C4A494930000171090503A7
:1036500000364949493600064949291E00003636D8
:10366000000000005636000000081422410000143B
:103670001414141400004122140800020151090618
:1036800000324959513E007C1211127C007F494999
:103690004936003E41414122007F4141221C007FCA
:1036A00049494941007F09090901003E4149497AD8
:1036B000007F0808087F0000417F41000020404152
:1036C0003F01007F08142241007F40404040007FBE
:1036D000020C027F007F0408107F003E4141413E02
:1036E000007F09090906003E4151215E007F09194A
:1036F00029460046494949310001017F0101003F47
:103700004040403F001F2040201F003F4038403FC6
:10371000006314081463000708700807006151492A
:10372000454300007F41410000552A552A550000BD
:1037300041417F000004020102040040404040403B
:10374000000001020400002054545478007F4844D3
:10375000443800384444442000384444487F00380A
:103760005454541800087E0901020018A4A4A47C33
:10377000007F080404780000447D400000408084FD
:103780007D00007F102844000000417F4000007C45
:1037900004180478007C0804047800384444443851
:1037A00000FC242424180018242418FC007C08049D
:1037B000040800485454542000043F444020003C76
:1037C0004040207C001C2040201C003C4030403CFD
:1037D000004428102844001CA0A0A07C004464548D
:1037E0004C441414141414140000000000000000D1
:1037F0000000000000000000000000F800000000D1
:10380000000000333000000000100C06100C060011
:10381000000000000000000040C07840C078400078
:10382000043F04043F040400007088FC08300000DA
:10383000001820FF211E0000F008F000E018000032
:1038400000211C031E211E0000F0088870000000EB
:103850001E2123241927211010160E00000000003D
:103860000000000000000000000000E0180402005A
:10387000000000071820400000020418E0000000CB
:103880000040201807000000404080F080404000C9
:103890000202010F01020200000000F0000000001F
:1038A0000101011F010101000000000000000000F3
:1038B00080B0700000000000000000000000000068
:1038C00000010101010101010000000000000000F1
:1038D000003030000000000000000000806018048C
:1038E000006018060100000000E010080810E00069
:1038F000000F102020100F00001010F80000000032
:103900000020203F20200000007008080888700078
:1039100000302824222130000030088888483000F8
:103920000018202020110E000000C02010F8000018
:1039300000070424243F240000F8088888080800B1
:103940000019212020110E0000E0108888180000C6
:10395000000F112020110E0000380808C838080098
:103960000000003F00000000007088080888700018
:10397000001C222121221C0000E010080810E00099
:103980000000312222110F00000000C0C000000022
:103990000000003030000000000000800000000047
:1039A000000080600000000000008040201008003F
:1039B0000001020408102000404040404040400008
:1039C00004040404040404000008102040800000E3
:1039D0000020100804020100007048080808F000E8
:1039E0000000003036010000C030C828E810E000B8
:1039F0000718272423140B000000C038E000000043
:103A0000203C23020227382008F8888888700000AC
:103A1000203F202020110E00C03008080808380080
:103A2000071820202010080008F808080810E000F7
:103A3000203F202020100F0008F88888E808100098
:103A4000203F20202320180008F88888E80810006C
:103A5000203F200003000000C030080808380000A4
:103A600007182020221E020008F808000008F808A5
:103A7000203F210101213F20000808F8080800002C
:103A80000020203F2020000000000808F80808005F
:103A9000C08080807F00000008F888C028180800D7
:103AA000203F20012638200008F808000000000010
:103AB000203F20202020300008F8F800F8F8080007
:103AC000203F003F003F200008F830C00008F80801
:103AD000203F200007183F00E01008080810E00011
:103AE0000F10202020100F0008F808080808F00028
:103AF000203F210101010000E01008080810E0004B
:103B00000F18242438504F0008F8888888887000DF
:103B1000203F2000030C302000708808080838007F
:103B20000038202121221C00180808F80808180075
:103B30000000203F2000000008F808000008F808F6
:103B4000001F202020201F000878880000C83808A7
:103B5000000007380E010000F80800F80008F8001F
:103B6000033C0700073C03000818688080681808B9
:103B700020302C03032C30200838C800C838080037
:103B80000000203F2000000010080808C838080086
:103B90002038262120201800000000FE020202002A
:103BA0000000007F40404000000C30C000000000DA
:103BB000000000010638C00000020202FE00000002
:103BC000004040407F0000000000040202020400A8
:103BD00000000000000000000000000000000000E5
:103BE00080808080808080800002020400000000CD
:103BF00000000000000000000000808080800000C5
:103C00000019242222223F2008F8008080000000B2
:103C1000003F112020110E00000000808080000075
:103C2000000E112020201100000000808088F80084
:103C3000000E112020103F200000808080800000B6
:103C4000001F222222221300008080F0888888181A
:103C50000020203F20200000000080808080800025
:103C6000006B94949493600008F8008080800000BA
:103C7000203F210000203F20008098980000000095
:103C80000020203F202000000000008098980000C5
:103C900000C08080807F000008F8000080808000E5
:103CA000203F24022D302000000808F8000000000A
:103CB0000020203F202000008080808080808000C5
:103CC000203F20003F20003F808000808080000057
:103CD000203F210000203F200000808080800000E5
:103CE000001F202020201F00808000808000000016
:103CF00080FFA12020110E00000000808080800045
:103D0000000E112020A0FF80808080008080800035
:103D100020203F2120000100000080808080800062
:103D20000033242424241900008080E080800000D7
:103D30000000001F20200000808000000080800024
:103D4000001F202020103F20808080000080808085
:103D500000010E3008060100808000800080808015
:103D60000F300C030C300F0000808000808080003A
:103D70000020312E0E312000808080000080808065
:103D800080818E7018060100008080808080800015
:103D90000021302C2221300000000000807C020233
:103DA00000000000003F404000000000FF00000055
:103DB00000000000FF0000000002027C8000000004
:103DC0000040403F00000000000601010202040420
:103DD00000000000000000000600000006000000D7
:103DE00006000000060000000600000006000000BB
:103DF00001000000030000000200000004000000B9
:103E000006000000080000000A0000000C0000008E
:103E10000E00000010000000383E000000000020EE
:103E200040000000002C0000783E00004000002010
:103E3000F0020000102C0000000000000000000054
:103E40000000000000000000000000000000000072
:103E50000000000000000000000000000000000062
:103E6000000000000000000004000000010000004D
:083E7000006CDC020000000000
:04000005000000C136
:00000001FF
