:020000040000FA
:1000000030030020D5000000671600006D150000C9
:1000100000000000000000000000000000000000E0
:100020000000000000000000000000002528000083
:100030000000000000000000371F00002928000019
:10004000F52F00006516000000000000B11200004E
:1000500027280000EB120000ED120000EF12000054
:100060000000000000000000000000000000000090
:10007000450C0000B10E0000F12F0000F32F00002E
:10008000F11300000000000000000000000000006C
:100090008F0F0000910F0000930F000071150000FA
:1000A000000000003927000000000000C92A0000FD
:1000B000F12A0000000000008D0F00000000000089
:1000C0000348854600F056FC00480047113B0000FD
:1000D0003003002009480A4A002100A1814200D9CA
:1000E0000244084802600848804708480047FEE785
:1000F000FEE7FEE7FEE7FEE7FEE700000000002067
:100100000000000008ED00E0ED280000C100000044
:1001100030B50B46014600202022012409E00D469F
:10012000D5409D4205D31D469540491B2546954027
:1001300040191546521E002DF1DC30BD03460B431D
:100140009B0703D009E008C9121F08C0042AFAD28D
:1001500003E00B780370401C491C521EF9D2704713
:10016000D2B201E00270401C491EFBD2704700224F
:10017000F6E710B513460A4604461946FFF7F0FFA6
:10018000204610BD421E5378521C002BFBD10B7829
:100190001370491C521C002BF9D17047F8B5024668
:1001A0004A40D40F42004B0052085B089A4202D2E8
:1001B0000246084611464A0023D0C30D4A00DDB26C
:1001C000120EAD1A202D35DA49020126490AF6052C
:1001D0008A19002C00D0524220214F1B1146B940F1
:1001E0002A411018C20D9A4221D0002C17D0012D9F
:1001F00008DCDA05801AD20F8019D207DBB200F0D2
:100200000DFAF8BDDA05801A012340001B06C0185C
:1002100080185A428018CA0F1043490007E0490865
:10022000C2071143DA05801A80194008801800F0CF
:10023000EDF9F8BD61000122511A001BF7E7012218
:10024000D2075140AAE70122D2075040A6E7024652
:1002500070B54A40D30FDB0740002DD04A002AD0AA
:10026000010E140E000212020919400A520A8418E3
:10027000E50104465443000A120A2E045043A4190F
:100280004219200CC543AA18120C0125AD03521CBB
:10029000521912047F39240400D0521C104301D497
:1002A0004000491EC2B20C06C0092018401C40087C
:1002B000802A02D003E0002070BD400840000029E1
:1002C00000DA0020184370BD70B502464A40D50FD1
:1002D00040004A00ED0740085208002814D0002AC8
:1002E00012D0C40DD30D41020120C0055202490AAB
:1002F000520AE41A091812187D34914201D3641C81
:1003000000E04900002C01DA002070BD002391427A
:1003100001D3891A0343400849000028F7D1002976
:100320000AD0914202D10121C90705E0914201D2D0
:10033000012101E00121C943E005C018401900F086
:1003400065F970BDF0B507460846584087B0C00F44
:10035000049048000E46590040084908BC1A8841DC
:1003600005D2384631461E4617460B46024658000F
:10037000400810434CD0300D039040055900400D0B
:10038000490D0590401A0290402872DA18030121A5
:10039000000B09050843019004980092002805D03D
:1003A0000199524200208841009201900298402118
:1003B0000A1A0199009800F0F5F805460C466B46BC
:1003C00007CB00F010F9C0197141039A0E0D0023FC
:1003D000D71756401A467A40164344D0049A002A4A
:1003E0002DD0029A012A039A15DC1205C01A9141F8
:1003F00001263605001C7141D20F059ED2070093DD
:10040000019202962A46234600F04EF907B0F0BD4D
:1004100038463146FAE71605224A0F46B218C01A86
:10042000B74101210905001C4F4100187F411146C9
:1004300018187941E20F10436D19644113E0E20787
:100440006D0815436408C2071443039A0126120578
:10045000C01A91413605001C7141CE074008304357
:100460004908C01851412A46234600F010F9CDE74B
:10047000FFE7049801224000C117121A00238B41A4
:1004800004983146C417381AA141EEE730B401246C
:10049000E407634030BC55E730B40124E407614011
:1004A00030BC4FE70000E0FF10B500229623114654
:1004B00000F0B4F810BD410040020122400AD2050C
:1004C000090E80187F2901DA00207047962903DC85
:1004D0009622511AC84070479639884070470000EC
:1004E0004A0009030123090B1B051943094B10B5E9
:1004F000520D9A4201DA002010BD064B34339A4265
:1005000003DC9A1A00F05EF810BD034951188840C8
:1005100010BD0000FF030000CDFBFFFFC20FD2079C
:10052000400040080BD0C10D0723DB01C918400271
:100530000905400A1143C2084007114370470020D3
:1005400001467047F0B51FB40646002082B005464C
:100550004024019100901BE0019922460F4630464D
:1005600000F030F8049A059B801A994110D3104688
:100570001946224600F016F8361A8F410197224696
:1005800001200021009F00F00DF838184D41009027
:100590002046641E0028DFDC019B00982946324675
:1005A00007B0F0BD10B5202A04DB0146203A914087
:1005B000002010BD914020239C1A0346E3401943BC
:1005C000904010BD10B5202A04DB0846203AD040E8
:1005D000002110BD0B46D340D0402024A21A9140E8
:1005E0000843194610BD10B5202A06DBCB17084674
:1005F000203A1041C1170B4306E00B461341D0408F
:100600002024A21A91400843194610BD002904DA9B
:10061000401C490001D140084000704770B40024DC
:10062000050C05D11024000402D1002921D0112489
:10063000050E01D100020834050F01D10001241D6F
:10064000850F01D18000A41C002801DB4000641C40
:10065000002908D020252E1B0D46F540A14000D0D2
:1006600001212943084301061B1B000ADB1D02D59B
:10067000002070BC7047DB05181880180029F8DAD4
:10068000401C4900F5D170BC40084000704710B5CF
:10069000002B08DA0024401C614192185B411A4388
:1006A00001D14008400010BDF0B51FB482B005462E
:1006B0000C0003D0084602F0C3FC02E002F0C0FCCC
:1006C00020300246009021462846FFF76BFF049B2E
:1006D000059A04460F4618431143084314D01846A0
:1006E00010431BD0009840210A1A18460599FFF7BD
:1006F00069FF05460E46009A05990498FFF752FFD8
:10070000084305D0012004E02046394607B0F0BD7B
:100710000020C11705430E432C43374300990E9820
:100720006305401A7905E40A00220C43FD0A0A30E9
:1007300002D500200146E9E70105101969410C9C2A
:100740000D9D00196941FFF7A2FFDFE7F0B51FB467
:1007500088B00B990998002448400999C00F4900B6
:1007600049080991C0070B990090490049080B916D
:1007700009990898A64608431CD00B990A98084383
:1007800018D0099801244000420D4800410D0998F5
:1007900024050003000B204309900B980003000B75
:1007A00020430B9050181C49401800220190144619
:1007B000104605E0002001460DB0F0BD032801DA27
:1007C000034600E003239C46C11A0AAE0AE05F001C
:1007D00008ADED5B4F00F75B7D430027AA187C4115
:1007E000491C5B1E6145F2DD410004AB5A522104F5
:1007F000120C0A43240C401C0828DFDB01980290ED
:100800000099704601910090059B049A07990698FB
:10081000FFF74AFFD0E700000DFCFFFFF0B50C46E4
:100820005C4085B0E40FE40703944C0000266408A4
:1008300059009446490802460296224321D0624656
:100840000A431ED06200570D4A000E032303550DC4
:10085000012402462C492405781B1B0B360B40183B
:1008600023432643614600901C46501AB44103D3EB
:100870000098401C009002E0921800985B4100280C
:1008800003DA0020014605B0F0BD00200121090572
:100890000746864611E064461D46141BB54106D343
:1008A0006546521BB341744607430C43A646CD0729
:1008B00040084908284392185B4105460D43EAD198
:1008C0001046184313D06046194650407140084303
:1008D00006D06046101AB34106D20122002306E07A
:1008E00000220123DB0702E00122D24353100098CB
:1008F00074460105381C6141029C039D0019694141
:10090000FFF7C5FEBFE70000FD0300004A00090332
:100910000123090B1B0519430A4B10B5520D9A42CE
:1009200002DA0020014610BD064B34339A4203DC44
:100930009A1AFFF747FE10BD034BD218FFF732FE9D
:1009400010BD0000FF030000CDFBFFFF10B5002924
:1009500004DB0124E40740428C412146002B04DBE8
:100960001C460123DB075242A341994200D1904229
:1009700010BD0000064C0125064E05E0E36807CCDB
:100980002B430C3C98471034B442F7D3FFF79CFB41
:10099000D8450000F8450000014800687047000095
:1009A0001800002010B500200B4908700B49087092
:1009B00018210B48FFF7DBFB4B20800100F076FD90
:1009C000002805D12C2207A1072000F0F1FB02E04E
:1009D00008A002F011FB10BD14000020150000203B
:1009E000CC00002041435F4D6561737572655F49BE
:1009F0006E697400484C5738303332205541525498
:100A000020496E697469616C697A65642E0D0A000B
:100A1000F0B58BB018222B4905A8FFF78FFB08A86B
:100A2000C47A05A800F060FB0546AC4240D1694697
:100A3000887E0004C97E090208436946097F08438D
:100A4000064608A9C878000409790902084308A9DC
:100A500049790843074608A88079010408A8C079A5
:100A60000002084308A9097A084304901648039035
:100A700016480290144801903046FFF715FD00908B
:100A80000399FFF7E4FB124908603846FFF70CFDB5
:100A900000900299FFF7DBFB0E4908600498FFF70E
:100AA00003FD00900199FFF7D2FB0B49086004E0B9
:100AB00074220AA10F2000F07BFB00200C49087073
:100AC0000BB0F0BDCC0000200AD7233C6F12833A54
:100AD0001C000020180000202000002041435F502F
:100AE000726F636573735061636B6574000000001F
:100AF000150000200D2803D00E2801D00F2806D1A4
:100B00000C4909680122520311430A4A11600F2857
:100B100006D10849096810221143064A116007E00E
:100B20000E2805D10349096820221143014A1160AA
:100B300070470000002401400249896B8143014A4B
:100B400091637047002401400648406804218843AF
:100B50000449486008464068042108430149486048
:100B6000704700004000014000B595B00121102001
:100B700001F0E2F90121042001F0FEF912200190B8
:100B80000020029001A90920C00600F0B1FBFFF788
:100B9000DBFF01200490002005900690052109024A
:100BA000079100210891C021099100210A910B9120
:100BB0000C910D910EA800F03FF904A800F0F2F896
:100BC00000F01EF802A002F017FA012015B000BDD7
:100BD0004144432044726976657220496E697469A4
:100BE000616C697A65642028504130312F43483167
:100BF0002C20504130342F434832290D0A00000088
:100C000000B506480068012108430449086000BF98
:100C1000802000F00BF80028FAD000BD002401402D
:100C20000148006A80B27047002401400146044830
:100C3000C06B0840002801D0012070470020FCE76D
:100C40000024014070470000826801691143426836
:100C50001143C26811434269114302681143174AA4
:100C60001268174B1A401143144A11601146496823
:100C70004022914382691143104A5160C1690029A1
:100C80000BD01146096903221202914301235B0232
:100C9000C2691A431143094A1161C16880290CD104
:100CA0000849096B20221143064A11630649C969A4
:100CB000102291431031044AD16170470024014051
:100CC00011C0FFFF000001400004004810B592B0C1
:100CD00004461E4800900121042001F04DF9FFF761
:100CE0008FFF002003900521090204910021059146
:100CF000C021069100210791089109910A91019460
:100D000002900BA800F098F801A800F04BF8012021
:100D100000F056F80FE00098411E009100280AD11B
:100D2000B8220BA1022000F043FA002000F048F89E
:100D30000B4812B010BD0120FFF778FF0028EAD061
:100D40000120FFF7F9FEFFF76BFFF2E71027000025
:100D50004144435F526561645F5261770000000067
:100D6000FFFF000010B5044620460830FFF76CFF77
:100D70002068FFF7BFFE01214903E06A884203D1E2
:100D80002046283000F02EF82168606808430449A6
:100D900049682F22914308430149486010BD000073
:100DA0000024014010B504462046FFF7DBFF03484E
:100DB00000680E2188430149086010BD00240140ED
:100DC000002806D00649896801221143044A91602F
:100DD00005E00349896849084900014A9160704764
:100DE00000240140026841681143124A52682F23CF
:100DF0001B029A4311430F4A5160C2688168114334
:100E0000026911430B4A526B38239A431143094A32
:100E1000516341695161816991610F221202016838
:100E2000914205D10349096810221143014A11601A
:100E30007047000000240140002101604160816092
:100E4000C160016102494161002181617047000078
:100E5000FF0F0000C143014A51617047002C01405F
:100E60000449C96849084900C207D20F1143014A21
:100E7000D1607047002C01400649096B0122120322
:100E80009143020301231B031A401143014A1163DA
:100E900070470000002C01400146044800690840EA
:100EA000002801D0012070470020FCE7002C014001
:100EB00010B54020FFF7F0FF002802D04020FFF7D8
:100EC000C9FF10BD4268016811430269114382687D
:100ED0001143027B002A01D0802200E0002211434E
:100EE000426911430F4AD2680F4B1A4011430D4A11
:100EF000D160816911602122125CC169002A02D08F
:100F0000FF22013200E0002211432022125C002A5D
:100F100002D00122520200E000221143014A516333
:100F200070470000002C01400B8FFFF74168090358
:100F30000268D2031143114AD2690F231B039A435B
:100F400011430E4AD16181680903427B002A01D016
:100F5000802200E000221143027B002A02D00122FD
:100F6000520200E000221143044A926A6523DB0129
:100F70009A431143014A916270470000002C0140DE
:100F80000149886070470000402C0140704770475D
:100F900070477047F0B585B0E120000104901E480D
:100FA00003901920800102904B20C00001901B4843
:100FB000009000250026002400270BE00120FFF709
:100FC00085FE06461548864202D1072005B0F0BDD1
:100FD000AD197F1C082FF1DB6803040CE120000130
:100FE000844201DB0120F1E70B48844201DB02204F
:100FF000ECE719208001844201DB0320E6E74B2067
:10100000C000844201DB0420E0E7A82204A11220F2
:1010100000F0CEF80720D9E7280A0000FFFF000003
:1010200043505F5265616453746174650000000051
:10103000FEB50546002D01D164242FE0062D01DA0E
:101040000A242BE0332D10DC2846FFF72DFA19492E
:101050000190FFF739F907463F210906FFF79EF88F
:101060000646FFF728FAC4B218E0502D15DC2846D2
:10107000FFF71AFA10490090FFF726F98521C905F4
:101080000190FFF78BF807463F210906FFF786F826
:101090000646FFF710FAC4B200E06024642C05D0C5
:1010A000052C00DA0524602C00DD6024204600F0C9
:1010B00015FFFEBD9A99193F000020400EB5402053
:1010C00000902020019064217D20C00000F01EFED1
:1010D00000F02CFF022000900020019069460920BA
:1010E000C00600F005F90EBD01460022002003E015
:1010F0000B5C9B189AB2401C1728F9DBD0B27047E2
:1011000010B501220821034800F06CF901200249C2
:10111000087010BD00040048290000200EB50C48DE
:10112000006B202108430A49086308200090202012
:1011300001906946074800F0DBF802200090122079
:1011400001906946034800F0D3F800F005F80EBDA1
:10115000000001400004004810B5002208210348A7
:1011600000F040F900200249087010BD000400485A
:101170002900002010B50221064800F02AF9044693
:10118000012C00D102E0002C02D101E0012010BDB1
:101190000020FCE700040048002001490870704767
:1011A0002A00002001480078704700002A00002033
:1011B00070B504460D4616461B48047033462A4651
:1011C00021461AA001F018FF2046122C25D00CDC75
:1011D000062813D004DC022822D0032821D11EE0E7
:1011E0000C280CD00F281CD116E01338030001F096
:1011F0003EFF07150C0D0E18180F180000BF14A0A5
:1012000001F0FAFE72B600BFFEE700BF00BF00BFEC
:101210001CA001F0F1FE05E000BF00BF02E000BF2E
:1012200000E000BF00BF70BD2A0000204552524FB1
:10123000523A20436F646520256420696E2025732F
:10124000206174206C696E652025750D0A00000010
:10125000464154414C3A20437269746963616C2081
:101260007065726970686572616C20696E6974205E
:101270006661696C65642E2048616C74696E672EC6
:101280000D0A0000534146455459204352495449E0
:1012900043414C204552524F523A204F70656E697F
:1012A0006E6720636F6E746163746F722E0D0A0037
:1012B000704700000549096B02229143891C034ACB
:1012C000116303490143034A516070470000014024
:1012D00000005A5A0020024008B5009000BF009953
:1012E0004A1E00920029FAD108BD70477047704726
:1012F0004A68002A04D1C2690B681A43C26167E0D8
:10130000C2690B689A43C26110234A681A40102AC6
:101310004ED102680B681A4302604A68112A07D14D
:1013200002690B681A430261C2680B689A43C26083
:101330004A68122A07D1C2680B681A43C260026960
:101340000B689A430261426A0B689A434262826A5E
:101350000B689A438262C26A0B689A43C262026B4C
:101360000B689A43026381238A681A40812A03D159
:10137000426A0B681A43426282238A681A40822AB0
:1013800003D1826A0B681A43826284238A681A40F6
:10139000842A03D1C26A0B681A43C26288238A680E
:1013A0001A40882A14D1026B0B681A4302630FE0BB
:1013B00002680B689A4302604A68202A04D1426896
:1013C0000B689A43426003E042680B681A4342602C
:1013D00070470246106D0840002801D00120704778
:1013E0000020FCE7012A01D1C16500E0816570475A
:1013F0007047002240210A5242210A5244210A52D7
:10140000704701464420405A402801DB01207047C4
:101410000020FCE770B504460D462046FFF7F1FFBB
:10142000002801D0002070BD4020005B25544021E1
:10143000095B481CC117890E091889118901411AD5
:101440008AB240210A5372B64420005B401C81B22C
:101450004420015362B60120E5E7000010B50421E5
:101460000C4801F0E5FC002813D00A4801F0BAFD51
:10147000044621460848FFF7CDFF002804D1B522D5
:1014800006A10320FFF794FE0421024801F0CCFCE2
:1014900000BF10BD00440040E4000020484C575FEE
:1014A000554152545F4953520000000010B58AB0B4
:1014B00004462948FFF79DFF2848006B4021084358
:1014C000264908630846806B8021084323498863C6
:1014D00023488069C008C000401C21498861012060
:1014E00001901120029001A91D48FFF701FF022081
:1014F00001902020029001A91948FFF7F9FE01216F
:101500001C2001F0FFFD1C20002805DBC206D20EC6
:1015100001219140134A116000BF049400216846E4
:101520008182C18200F0BCFD069000216846818363
:10153000C18308210184002181840221418404A9FE
:10154000094801F095FC01220421074801F082FCC2
:1015500001200AB010BD0000E4000020000001409E
:101560000008004800E100E00044004000BFFEE742
:10157000704700000148024908607047CCCC000069
:10158000003000401449154A116015491160017A74
:10159000012909D142680168114310221143C26830
:1015A00011430E4A516006E0426801681143C26867
:1015B00011430A4A5160094A016991604169116108
:1015C00000BF0649C9684907490F0029F9D10549F3
:1015D000024A116070470000CCCC0000003000408F
:1015E00055550000666600000148024908607047D2
:1015F000AAAA00000030004070B5054615480178E1
:101600007D20C000FEF784FD064631462846FEF7E1
:101610007FFD0446601E1049884201D901200CE07C
:10162000601E0E4948610321081F01F0A7FD00203C
:101630000A498861072008610020002800D070BD99
:101640000021481E01F09AFD00200549086000BFF6
:10165000F5E7000034000020FFFFFF0000E000E09D
:10166000300000207047704770B5002411E021461B
:10167000002000F087F9002507E0002000F0B8FA0C
:10168000002800D170BD681CC5B2802DF5DB601C40
:10169000C4B2082CEBDB0120F4E7000000B589B0F0
:1016A0000121602000F048FC0121080200F064FCE8
:1016B000182006902020079006A9AB48FFF718FED7
:1016C000012006902020079006A9A848FFF710FEE9
:1016D000A6488069072109078843032109074018A4
:1016E000A2498861A0488069072109028843032133
:1016F000090240189C4988619C4800688021884301
:101700009A4908609848006804218843964908600F
:1017100096484068802188439449486092484068D0
:1017200004218843904948609048C06980218843DB
:101730008E49C8618C48C069042188438A49C861C0
:101740008A480068400840008849086008464068A8
:101750004008400048600846C06940084000C86131
:1017600081480068082188437F490860084640682E
:10177000082188437C4948600846C069082188439D
:101780007949C86108460068102188437649086095
:101790000846406810218843734948600846C0697C
:1017A000102188437049C861012211466F48FFF734
:1017B00019FE012208216C48FFF714FE01221021B6
:1017C0006948FFF70FFE01A800F0DCFF0121890343
:1017D000684681800421C18007218902018100219E
:1017E0004181818101214902C181102101820021B1
:1017F000418201A800F0A2FF012000F083FF002237
:1018000010215948FFF7EEFD4B208001FFF764FDE2
:10181000012210215448FFF7E5FD5548FFF75CFD14
:10182000AE2000F0C9F9002801D109B000BDD520D3
:1018300000F0C2F9002800D1F7E7F02000F0BCF971
:10184000002800D1F1E7A82000F0B6F9002800D167
:10185000EBE73F2000F0B0F9002800D1E5E7D32006
:1018600000F0AAF9002800D1DFE7002000F0A4F979
:10187000002800D1D9E7402000F09EF9002800D1CF
:10188000D3E78D2000F098F9002800D1CDE714208F
:1018900000F092F9002800D1C7E7202000F08CF971
:1018A000002800D1C1E7002000F086F9002800D10F
:1018B000BBE7A12000F080F9002800D1B5E7C820DF
:1018C00000F07AF9002800D1AFE7DA2000F074F9CF
:1018D000002800D1A9E7122000F06EF9002800D1FD
:1018E000A3E7812000F068F9002800D19DE7FF20E0
:1018F00000F062F9002800D197E7D92000F05CF9E8
:10190000002800D191E7222000F056F9002800D1EC
:101910008BE7DB2000F050F9002800D185E720207C
:1019200000F04AF9002800D17FE7A42000F044F934
:10193000002800D179E7A62000F03EF9002800D168
:1019400073E7FFF791FE002806D1C32209A10A2000
:10195000FFF72EFC002068E7AF2000F02DF90028EB
:1019600000D162E7012060E7000800480004004859
:1019700080BB00004F4C45445F496E69745F436C07
:101980006561720070B504460D462946B031C8B293
:1019900000F012F9002800D170BD2007000F00F000
:1019A0000BF9002800D1F7E7211110221143084656
:1019B00000F002F9002800D1EEE70120ECE700007A
:1019C000FFB581B007460D46002600240398203855
:1019D000C6B27F2F02DD0027681CC5B20498082814
:1019E0002FD129463846FFF7CDFF002801D105B099
:1019F000F0BD00240AE0310109191E4A505C00F0D4
:101A0000F7F8002800D1F2E7601CC4B2082CF2DB22
:101A1000681CC1B23846FFF7B5FF002800D1E6E7E1
:101A200000240BE0310109190831124A505C00F022
:101A3000DFF8002800D1DAE7601CC4B2082CF1DB23
:101A400016E029463846FFF79DFF002800D1CEE773
:101A500000240BE006217143074A8918085D00F055
:101A6000C7F8002800D1C2E7601CC4B2062CF1DB25
:101A70000120BCE70C3E0000E43B0000F8B507463F
:101A80000D461646702F01DC062D01DD0020F8BD45
:101A900029463846FFF776FF002800D1F7E70024F3
:101AA0000AE07101134A8918085D00F0A1F80028C6
:101AB00000D1ECE7601CC4B2102CF2DB681CC1B290
:101AC0003846FFF75FFF002800D1E0E700240CE074
:101AD0007101084A8A1821461031505C00F088F8DC
:101AE000002800D1D3E7601CC4B2102CF0DB012029
:101AF000CDE70000FC430000FFB581B01746019D13
:101B0000029E10200090002416E0702D02DD0025BA
:101B1000B01CC6B2062E01DD002600253A5D314616
:101B20002846FFF7ABFF002801D105B0F0BD2846DD
:101B30001030C5B2601CC4B204988442E5DB0120B9
:101B4000F3E7FFB581B005460E461C460027082C7A
:101B500001D1082000E00620009027E00398C25D34
:101B6000234631462846FFF72BFF002801D105B058
:101B7000F0BD00982818C5B280210098081AA84224
:101B800007DA0025082C01D1022000E0012080198D
:101B9000C6B2082C01D1022000E001200821081A59
:101BA000B04201DA00260025781CC7B20398C05D58
:101BB0000028D3D10120DAE770B5044600220821BD
:101BC0000948FFF70FFC002201210848FFF70AFC33
:101BD000204600F0E5FD0546012211460348FFF7C7
:101BE00001FC284670BD00000008004800040048C1
:101BF00070B50446012208210948FFF7F3FB0022D3
:101C000001210848FFF7EEFB204600F0C9FD05461C
:101C1000012211460348FFF7E5FB284670BD00008E
:101C20000008004800040048F0B589B02948089031
:101C300029480790AF20C000069028480590FF2053
:101C4000F530049040000390C8200290FF20F5304A
:101C500001902348009000250026002400270BE077
:101C60000220FFF733F806461D48864202D10020C5
:101C700009B0F0BDAD197F1C082FF1DB6803040C1F
:101C80001448844204DB1448844201DC0D20EFE751
:101C9000AF20C000844204DB1048844201DC1420E1
:101CA000E6E7FF20F530844204DB4000844201DC9B
:101CB0002020DDE7C82C05DBFF20F530844201DC65
:101CC0003F20D5E7662207A11320FFF771FA002015
:101CD000CEE70000980800008C0A00006C070000A6
:101CE000FFFF000050505F47657443617061636996
:101CF000747900000EB51020009000200190694614
:101D00000920C006FFF7F4FA0EBD0000F0B593B04D
:101D100005460E4600200290002400270190002D69
:101D200001D0642E07DD21225AA10420FFF740FADA
:101D3000002013B0F0BD5A48406B80210843584939
:101D400048630846006B1021084355490863092081
:101D5000C0068069072109068843012189064018C9
:101D60000921C90688618020059020200490402028
:101D7000039003A90920C006FFF7BAFA00F090F912
:101D800002900024601C684301460298FEF7C0F9E7
:101D9000401E87B212E0601C84B2601C684301469A
:101DA0000298FEF7B5F9401E87B2FF2C06DD4922E6
:101DB0003CA10820FFF7FCF90020BAE73E48874223
:101DC000E9DC002008A90875012040030C900020E0
:101DD0000A900B90002C01D10E9029E0012C02D129
:101DE00010200E9024E0042C02DA20200E901FE038
:101DF000082C02DA30200E901AE0102C02DA402073
:101E00000E9015E0202C02DA50200E9010E0402CAD
:101E100002DA60200E900BE0FF2C02DC70200E90A6
:101E200006E0632225A10820FFF7C2F9002080E721
:101E300000200F9010971190002110A8017241729C
:101E40000AA8FFF73FF8012108A841710120089076
:101E5000002108A80171062007900020069006A81E
:101E6000FFF764F8791C714308466421FEF750F9C6
:101E700080B201900198FFF783F80120FEF7FCFF84
:101E800014480560144806700120FEF7E9FF0120A0
:101E90004FE7000050574D5F496E69740000000025
:101EA0000000014050574D5F496E69745F4672658E
:101EB0007143616C63000000FFFF000050574D5FED
:101EC000496E69745F5072657363616C65724D61D0
:101ED000700000000C0000201000002070B50446C7
:101EE00000250026642C06DDC8220BA10420FFF784
:101EF0005FF9002070BD0B48006885B2691C614322
:101F000008466421FEF704F986B23046FFF738F838
:101F1000054804700120EDE750574D5F5365744448
:101F200075747900002C01401000002010B50120CC
:101F3000FEF796FF10BD7047002905D0054A126BC9
:101F40000243044B1A6304E0024A126B8243014BC2
:101F50001A63704700000140002905D0054A926BC2
:101F60000243044B9A6304E0024A926B8243014BA2
:101F70009A63704700000140002905D0054A526B62
:101F80000243044B5A6304E0024A526B8243014B02
:101F90005A63704700000140014604480069084048
:101FA000002801D0012070470020FCE7000001401C
:101FB000C1020A4A128B1143094A916111464968CC
:101FC000084A1143064A516000BF05498969012248
:101FD000D20311409142F8D170470000A0071000D1
:101FE0000000014001005A5A70B504460C480068D0
:101FF00080B20C494018C008C0002043084908605E
:1020000000F012F8054600F05BF80548006840074C
:10201000400FA04201D0012070BD0020FCE700006D
:102020000000014000005A5A70B500240026002527
:10203000164800684607760F144880694004050F6B
:10204000002E04D0012E0AD0032E0CD109E0A800E6
:102050000F4A11580F48FEF75BF804460BE00E4C90
:1020600009E00E4C07E0A800094A11580948FEF79C
:102070004FF8044600BF00BF044800680006410F47
:102080002046C8400446204670BD000000000140C4
:10209000BC440000006CDC020024F400208000003E
:1020A00010B50024FFF7C0FF044604480068C006CE
:1020B000810F2046C8400446204610BD0000014064
:1020C00001490860704700003800002070B50446E0
:1020D0000D46204600F026F8002801D0002070BDF3
:1020E0004220005B205C28704221095B481CC1171C
:1020F000890E091889118901411A8AB242210A53AD
:1021000072B64420005B401E81B24420015362B687
:102110000120E4E7002240210A5242210A524421D0
:102120000A52704701464420405A002801D101203C
:1021300070470020FCE701464420405A402801DB5C
:10214000012070470020FCE770B504460D4620468C
:10215000FFF7F1FF002801D0002070BD4020005B98
:1021600025544021095B481CC117890E09188911A3
:102170008901411A8AB240210A5372B64420005B99
:10218000401C81B24420015362B60120E5E7000003
:1021900001480078704700002400002010B5FEF7C9
:1021A0008DFFFFF7A7FDFEF7B9FFFEF7FBFB012050
:1021B000054908700020FEF73BFFFEF7CDFF03A0A6
:1021C00000F01AFF10BD0000240000204368617277
:1021D00067696E67205374617465204D6163686937
:1021E0006E6520496E697469616C697A65642E2038
:1021F00053746174653A2049444C450A000000005C
:10220000F8B588480578FEF7CDFF0646002E09D0C0
:1022100084480078062805D0314683A000F0ECFE03
:1022200006250CE0FEF7B6FE0446072C07D17D48D4
:102230000078062803D08BA000F0DEFE0625794842
:102240000078854266D177480078030000F00FFFE0
:1022500007C805445773A9B0C700022C03D0032C4C
:1022600001D0042C35D1FFF7DFFC8A4908800846ED
:102270000088002804D1062587A000F0BDFE28E0D4
:10228000202784480088B84202DA8248008800E0AB
:1022900038468749087008460078FEF7C9FE84482A
:1022A00002787C48018883A000F0A6FE022C01D1B0
:1022B00002250DE0032C01D1032509E006256F223C
:1022C00089A11A20FEF774FF00BF89A000F094FED8
:1022D00000BFFEF741FF94E0032C04D103258FA03B
:1022E00000F08AFE08E0012C06D101250020FEF74F
:1022F0009FFE93A000F080FEFEF72EFF81E0FEF728
:10230000FFFE9648FEF7E8FFFEF734FF012806D1EE
:10231000042500E076E092A000F06EFE0AE0932231
:102320009CA11420FEF744FFFEF716FF06259DA092
:1023300000F062FE65E0022C17D1FEF70DFF874822
:10234000FEF7CAFFFEF716FF002804D10225A148B8
:1023500000F052FE24E0A6229FA11420FEF728FFE1
:102360000625A2A000F048FE1AE0012C18D1FEF7C5
:10237000F3FE7A48FEF7B0FFFEF7FCFE002806D118
:102380000125FEF755FEA44800F036FE08E0B6220F
:10239000A2A11420FEF70CFF0625A6A000F02CFE3B
:1023A0002FE0FEF7D9FE0625B2A000F025FE28E0BA
:1023B000FEF7D2FE0020FEF73BFEFEF7EBFD0446E3
:1023C000012C0AD1FEF7D6FE002806D1B84800F04D
:1023D00013FEFEF7E1FE012500E000BF11E000BFA3
:1023E000E522B4A11A20FEF7E3FE0E480178B3A05F
:1023F00000F002FEFEF7B0FE0020FEF719FE0125F8
:1024000000BF00BF07480078854209D02A4605482A
:102410000178B5A000F0F0FD0248057000F02AFC3C
:10242000F8BD000024000020534D3A20506572731F
:10243000697374656E74204572726F72204465749E
:10244000656374656420282564292E20466F7263B5
:10245000696E67204641554C542073746174652E33
:102460000A000000534D3A204350204661756C74B9
:102470002044657465637465642E20466F726369D9
:102480006E67204641554C542073746174652E0A62
:102490000000000026000020534D3A2050502046F6
:1024A00061756C74204465746563746564210A0009
:1024B00028000020534D3A2056656869636C6520FA
:1024C000436F6E6E65637465642E204361626C6554
:1024D0003A202575412C204D617820436861726750
:1024E000653A202575410A00534D5F49646C6500CB
:1024F000534D3A20537461746520442064657465BB
:1025000063746564202D207472656174696E672040
:102510006173204661756C742E0A0000534D3A2099
:102520004368617267696E6720526571756573747F
:102530006564202853746174652043292E0A0000C5
:10254000534D3A2056656869636C6520446973632E
:102550006F6E6E65637465642E0A00000053070099
:10256000534D3A20436F6E746163746F7220436CF5
:102570006F73656420436F6E6669726D65642E20AB
:102580004368617267696E67204163746976652E7E
:102590000A000000534D5F4368617267696E6752BD
:1025A00065710000534D3A20436F6E746163746F20
:1025B0007220436C6F7365204641494C454421208D
:1025C000456E746572696E67204661756C742E0A7B
:1025D000000000004C450000534D5F436861726786
:1025E000696E675F53746F7000000000534D3A20AE
:1025F000436F6E746163746F72204F70656E204616
:1026000041494C45442120456E746572696E6720CE
:102610004661756C742E0A0090450000534D5F436F
:1026200068617267696E675F446973636F6E6E6538
:1026300063740000534D3A20436F6E746163746F8E
:1026400072204F70656E204641494C4544206166BA
:1026500074657220646973636F6E6E6563742120A4
:10266000456E746572696E67204661756C742E0ADA
:1026700000000000534D3A205374617465204420DB
:102680002856656E74696C6174696F6E29206E6F6F
:102690007420737570706F727465642E20456E744B
:1026A0006572696E67204661756C742E0A000000C1
:1026B000FC440000534D5F52756E0000534D3A20AC
:1026C000496E76616C6964205374617465202825B5
:1026D00064292120466F7263696E6720746F2049F8
:1026E000444C452E0A000000534D3A205374617447
:1026F00065204368616E6765202564202D3E202596
:10270000640A000005490968402291438201402380
:102710001A401143014A1160704700000030014027
:102720000146044800690840002801D00120704794
:102730000020FCE7003001407047000001888288DB
:10274000114342891143028A1143C289114382898C
:10275000114342881143C288114302891143044A3C
:102760001268044B1A401143014A1160704700007F
:10277000003001404000FFFF0149886170470000C0
:1027800000300140002101804180072189028180C1
:102790000021C180018141818181C1810182704715
:1027A00038B50446164800900BE00098411E009191
:1027B000002806D1222213A10220FEF7F9FC0020F6
:1027C00038BD0120FFF7ACFF0028EED02046FFF710
:1027D000D3FF0B4800900BE00098411E00910028A9
:1027E00006D12F220BA10220FEF7E2FC0020E7E732
:1027F000FF200130FFF794FF0128EDD00120DFE733
:10280000102700005350495F57726974655F545830
:10281000450000005350495F57726974655F425527
:10282000535900007047704710480068401C0F491A
:1028300008600F480068401C0D49086008460068A1
:102840000A2804D30020086001200A4908700A48B9
:102850000068401C0849086008460068642804D3E2
:102860000020086001200549087070472C000020F6
:1028700004000020000000200800002001000020CB
:1028800010B5002000210022134B1B689A07920FFD
:10289000002A04D0012A04D0032A06D103E00F48FD
:1028A00005E00F4803E00F4801E00C4800BF00BFFF
:1028B000094B1B687024234019090346CB400A4C7E
:1028C0002360002902D12346186003E00346CB4071
:1028D000054C236010BD000000000140006CDC02CC
:1028E0000024F400208000003800002010B50120F2
:1028F000FEF7E0FC0620FFF75BFB00BF0120C002F3
:10290000FFF74AFB0028F9D00020FFF76DFBFFF727
:10291000B7FF0B49098B4805400D0A498969C90A67
:10292000C9020143074A91610549498B8805800D19
:102930001146096A890A89020143116210BD00002B
:10294000A00710000000014010B586B00124FEF77A
:10295000A5FE002805D16C2228A10A20FEF728FC3C
:1029600000244B20C00100F007F9002805D1762291
:1029700022A10620FEF71CFC002432217D20C0008D
:10298000FFF7C4F9002805D17E221CA10820FEF71C
:102990000FFC0024FEF7E8F8002805D1842217A1D7
:1029A0000920FEF705FC002401212020FFF7D4FABE
:1029B000032000909B20049000200190694608723B
:1029C00011480590002003906846FEF7DBFD0F4894
:1029D0000068FEF711FE002C09D00DA000F00CFBE2
:1029E00018A000F009FB20A000F006FB02E027A0E1
:1029F00000F002FB204606B010BD0000537973744E
:102A0000656D5F496E697400FF0F0000380000209B
:102A10000D0A435733324630303320436F726520FE
:102A200053797374656D20496E697469616C697A54
:102A30006564205375636365737366756C6C790D9B
:102A40000A0000004957445420436F6E6669677559
:102A5000726564202854696D656F7574207E353009
:102A6000306D73290D0A00005379735469636B202C
:102A7000496E697469616C697A65642028316D7387
:102A8000207469636B290D0A000000000D0A43578A
:102A900033324630303320436F726520537973747C
:102AA000656D20496E697469616C697A6174696FDA
:102AB0006E20656E636F756E7465726564206572F5
:102AC000726F7273210D0A0010B50421074800F0DF
:102AD000B8F9002801D000F00FF80121034800F0F8
:102AE000B0F9002801D000F02FF810BD00380140E7
:102AF00010B5FEF7B3FC10BD10B504210D4800F071
:102B000097F9002814D00B4800F06CFA04462146CF
:102B10000948FFF719FB002805D1FF22103207A151
:102B20000320FEF745FB0421024800F07DF900BFB9
:102B300010BD00000038014086000020554152546D
:102B4000315F49535200000008B569460848FFF755
:102B5000BDFA002805D068460178064800F046FA1C
:102B600004E000220121034800F074F908BD0000D0
:102B7000400000200038014010B58AB004463548B6
:102B8000FFF7C8FA3448FFF7C5FA3448006B102144
:102B90000843324908630846006B202108432F4947
:102BA00008630846406B491508432C4948632C4884
:102BB0008069072109028843FF3001302849886174
:102BC0000920C0068069C008C000401C0921C90650
:102BD0008861042001902020029001A92048FEF77E
:102BE00087FB012001901120029001A90920C00655
:102BF000FEF77EFB00211B2000F048FA1B20002876
:102C000005DBC206D20E01219140164A116000BFB9
:102C10000494002168468182C182FFF741FA069040
:102C2000002168468183C18301848184032141841A
:102C300004A90D4800F01CF9012204210A4800F003
:102C400009F900220121084800F004F901200AB026
:102C500010BD000040000020860000200000014060
:102C60000004004800E100E00038014010B5FEF724
:102C7000FBFC10BDF0B591B0FEF794FA0546FEF7E7
:102C8000F3FC002D17D02A4644A10CA800F0C4F98B
:102C9000082346A200210846FEF753FF08230CAA8A
:102CA00002210020FEF74DFF082340A2042100204E
:102CB000FEF747FF70E042A00068109004200F90DC
:102CC00010AA002108460F9BFEF716FFFFF760FAD7
:102CD000044600200E9014223A4909A8FDF72EFA66
:102CE00014223849143104A8FDF728FA230000F013
:102CF000BEF907050A0F14191E23280032A109A8DE
:102D0000FDF740FA22E032A109A8FDF73BFA1DE0E9
:102D100032A109A8FDF736FA18E033A109A8FDF79A
:102D200031FA13E032A109A8FDF72CFA0EE033A125
:102D300009A8FDF727FA09E033A109A8FDF722FA4F
:102D400004E033A109A8FDF71DFA00BF00BF042C61
:102D500011D1FDF721FE0E900E98FDF7DFFB064620
:102D600032460B462CA101A800F056F901A904A88F
:102D7000FDF708FA03E02AA104A8FDF703FA0823E7
:102D800009AA02210020FEF7DCFE082304AA042180
:102D90000020FEF7D6FE00BF11B0F0BD4641554CF5
:102DA000543A20436F646520256400002D2D2D2D9D
:102DB0002D2D2D2D2D2D2D2D2D2D2D2D00000000F7
:102DC00000010304BC3B0000494E495400000000D0
:102DD00049444C452028412900000000434F4E4EF5
:102DE0002028422900000000524551202843290094
:102DF00043484152474528432900000056454E5458
:102E000020284429000000004641554C5421000070
:102E1000554E4B4E4F574E00252E31662041000037
:102E2000302E302041000000026A8A43026270475F
:102E30000246D0690840002801D0012070470020D8
:102E4000FCE70246D0690840002801D00120704705
:102E50000020FCE710B5002A03D083680B43836091
:102E600004E08368CC43A4B22340836010BD00001B
:102E7000F0B589B005460C460026002008900027D2
:102E8000A088A1890843E1890843218A0843618A0F
:102E900008432968514A114008432860E088A18A04
:102EA00008436968C3229200914308436860A08880
:102EB00000282FD121680801FDF7F6FA0790A068D5
:102EC000FDF7F2FA06900799FDF7FEF90746384636
:102ED000FDF7F1FA86B23046FDF7E6FA3946019081
:102EE000FDF7B1F98321C9050290FDF7B0F9039010
:102EF000FDF714FB00223A4B05910490FDF722FAEE
:102F000007910690FDF7ECFA80B20890EE60089801
:102F1000286160E0A0880121490288421BD1216814
:102F2000C800FDF7C1FA0290A068FDF7BDFA019054
:102F30000299FDF7C9F90390FDF7F0FA0022284B3A
:102F400005910490FDF7FEF907910690FDF7C8FA88
:102F500086B2EE603FE0A0880121890288421BD141
:102F600021688800FDF7A0FA0290A068FDF79CFA9E
:102F700001900299FDF7A8F90390FDF7CFFA00221E
:102F8000174B05910490FDF7DDF907910690FDF7C9
:102F9000A7FA86B2EE601EE02068FDF785FA02907F
:102FA000A068FDF781FA8721C9050090FDF74FF968
:102FB00001900299FDF788F90390FDF7AFFA00221E
:102FC000074B05910490FDF7BDF907910690FDF7B9
:102FD00087FA86B2EE6009B0F0BD0000C0F8FFFFCE
:102FE0000000E03F0146486AC0B270478162704706
:102FF00070477047704700000FB410B503A9044B29
:10300000044A029800F0C0F910BC08BC04B018478C
:10301000CD3A00003C0000200FB410B504A9074BC6
:1030200002AA039800F0B0F9044602A9002000F0BB
:1030300047FD204610BC08BC04B01847C13A000048
:103040002021020C01D010211046020A01D01046A6
:103050000839020901D01046091F820801D0104624
:10306000891E420801D0881E7047081A704730B484
:103070007446641E2578641CAB4204D3635D5B0018
:10308000E31830BC18471D46F8E7000010B50028CB
:1030900019DB1A4A03231B02D21883089B00D2585B
:1030A0008307DC0EFF23A3409A438B071B0E840784
:1030B000E40EA3401A43114B032424021B19840875
:1030C000A4001A5118E00E4A03071B0F083B9B0887
:1030D0009B00D2588307DC0EFF23A3409A438B0743
:1030E0001B0E8407E40EA3401A43054B0407240F6C
:1030F000083CA408A4001A5110BD000000E100E043
:103100001CED00E010B5002819DB1A4A03231B024E
:10311000D21883089B00D2588307DC0EFF23A340FC
:103120009A438B071B0E8407E40EA3401A43114BEE
:10313000032424021B198408A4001A5118E00E4A23
:1031400003071B0F083B9B089B00D2588307DC0E2C
:10315000FF23A3409A438B071B0E8407E40EA34072
:103160001A43054B0407240F083CA408A4001A5175
:1031700010BD000000E100E01CED00E010B50028EB
:1031800019DB1A4A03231B02D21883089B00D2586A
:103190008307DC0EFF23A3409A438B071B0E840793
:1031A000E40EA3401A43114B032424021B19840884
:1031B000A4001A5118E00E4A03071B0F083B9B0896
:1031C0009B00D2588307DC0EFF23A3409A438B0752
:1031D0001B0E8407E40EA3401A43054B0407240F7B
:1031E000083CA408A4001A5110BD000000E100E052
:1031F0001CED00E002E008C8121F08C1002AFAD145
:1032000070477047002001E001C1121F002AFBD166
:1032100070470000F0B51FB486B00998089A030DF6
:103220000021024314D05148514A18185043051444
:103230001198012810981AD0281A401C00264D4FCA
:103240004D49009601910490002812DA444211E0A1
:103250001198012449A3012801D11098C14306986F
:10326000119A84600360C26041600BB0F0BD4042BF
:10327000E4E70446210500203F4A001C5141039128
:10328000029012E0E00707D032463B4601990098D1
:10329000FDF75CFA0191009032463B461046194614
:1032A000FDF754FA06460F466410002CEAD1049844
:1032B000039B0028029A0999089806DAFDF746FA56
:1032C000019B009AFDF742FA05E0FDF7A7FA019B82
:1032D000009AFDF7A3FA04460E460022284BFDF79C
:1032E00035FB03D80020C043014607E00022254BF0
:1032F00020463146FDF726F8FDF708FB102409E0CB
:10330000002C0ADB0A220023FDF71CF9079B303250
:103310001A55641E02460A43F2D11122641C079B0F
:10332000121B1C19119B012B03D0012308430ED142
:103330000AE0084304D0112010900020119077E794
:103340001098151A6D1E0BE01098824202DD0023C2
:103350006D1C03E0824201DA00236D1E002BEED0CB
:10336000069811998260C16030C07EE701FCFFFFC2
:10337000104D0000000014400000F03F300000003D
:103380000000F0430000E03FFFB597B0064600257F
:1033900018E2252877D100242746FD49049400E04F
:1033A0000443761C32780120203A90400842F7D13D
:1033B00030782A280ED00222307801463039092987
:1033C00016D804990A235943303940181443761CFF
:1033D0000490F1E7189802C804911890002904DAC3
:1033E0000120400304434842049002200443761C19
:1033F00030782E2814D1042004437078761C2A28B3
:1034000009D11898761C80C8189009E00A214F430A
:10341000303FC719761C3078014630390929F5D973
:1034200030786C2810D006DC4C281AD068280ED0D2
:103430006A2817D104E0742813D07A2812D110E03A
:103440000120400504430CE00121090501E00321AE
:1034500009050C437178814203D10120000524182D
:10346000761C761C3078119066280BD013DC582817
:103470007DD009DC00287BD04528F6D04628F4D042
:1034800047281AD1A5E118E0632835D0642870D008
:10349000652812D19DE170286CD008DC6728F1D036
:1034A00069287BD06E280DD06F2806D1BAE073282A
:1034B0002ED0752871D0782859D01A9A199990472A
:1034C0006D1C7EE16002400F022809D003280DD058
:1034D0000428189801680DD00D60001D189070E147
:1034E0001898EA1701680D604A60F6E718980168B5
:1034F0000D80F2E70D70F0E718986A4601781172B6
:10350000001D18900020507202A80090012005E0D4
:10351000189802C8189000200091C04361070DD58B
:10352000002101E00199491C0191B94212DA81425E
:10353000F8DB009A515C0029F4D10BE0002101E096
:103540000199491C01918142FADB019A0099895C39
:103550000029F5D1019904981A9B471A214638464B
:10356000199A00F097FA0199401945180BE04FE0BD
:103570002CE113E04EE0009800990078491C00917E
:103580001A9A199990470198401E0190401CF2D157
:10359000214638461A9B199A10E137E00A2000218B
:1035A000009001916002410F022907D0189A01CAC8
:1035B0001892C2179446032908D00AE01898C01D33
:1035C000C108C90005C91891944607E000B2C217A6
:1035D0009446042902D140B2C1178C4600226146AC
:1035E000944506DA0A460021404291418C462D213D
:1035F00002E0210504D52B216A461173012103E065
:10360000E10701D02021F7E7029155E00A200AE006
:10361000102008E0102000900021042004430191B4
:10362000082703E008200021019100906002410F6B
:10363000022907D0189A01CA189200229446032939
:1036400008D008E01898C01DC108C90005C9189124
:10365000944603E080B2042900D1C0B20021029157
:10366000210729D51199702906D0009A1021019BB4
:103670004A401A4305D00EE040216A4611730121E9
:1036800008E06146014306D030216A461173119962
:10369000517302210291009A0821019B4A401A436A
:1036A0000AD16146014301D1610705D530216A463F
:1036B000117301217F1E02911199582904D035A15F
:1036C0000E910DA90D910DE037A1F9E76146019B1F
:1036D000009AFCF737FF0E9B8C469B5C0D9A521E9E
:1036E0000D92137061460143F0D10D9805A9081A97
:1036F00020300190600703D501200004844300E0DE
:1037000001270198874201DD381A00E00020019965
:1037100000904118029809180498401A0490E00398
:1037200006D421461A9B199A049800F0B3F945195A
:10373000002706E003A81A9AC05D199990476D1CEE
:103740007F1C02988742F5DBE0030CD521461A9BCB
:10375000199A049800F09EF9451904E01A9A30204D
:10376000199990476D1C0099481E00900029F5DCBE
:1037700008E00D980D990078491C0D911A9A199935
:1037800090476D1C0199481E01900029F1DC63E10E
:103790000928010030313233343536373839616227
:1037A00063646566000000003031323334353637EB
:1037B00038394142434445460000000000F05AF9C0
:1037C0004519761C3078002800D0E2E528461BB069
:1037D000F0BD600700D406271898C01DC108C900B5
:1037E00048680A680831C30FDB071891190001D037
:1037F0009CA108E0210501D59BA104E0E10701D0CF
:103800009AA100E09AA1430011985B0810916528E5
:103810000CD006DC452809D046281DD0472841D1C8
:1038200041E0662818D067283CD13CE00021112FE8
:1038300001DB112000E0781C0191009008A911A87B
:10384000FFF7E8FC139905910021119A15927F1C4E
:1038500012980197009150E00120C00703900120C9
:10386000019008A9009711A8FFF7D4FC139A1499A6
:1038700005920022119B009212981593059A0192CD
:10388000002901D0104602E0791C40180190381A36
:1038900001D5019804E04042401E0090781C019040
:1038A000C01B029043E0012F00DA01270021112FF5
:1038B00001DD112000E038460191009008A911A80F
:1038C000FFF7A8FC13990591119A002112981592FF
:1038D0000091019721070CD40599B94201DB0199A8
:1038E00000E00191012904DD159A491E515C30293F
:1038F00006D0B84201DA011D05DA0121029115E076
:103900000199491EEDE7002805DC00994118009156
:103910000199091A03E0019A411C914200DD0191CD
:103920000099401A401C02900120C0070390200714
:1039300006D402990198814202DB0020C043029024
:1039400000206946C87707AF012103980337C907EC
:10395000884224D0022011902B2012900398002836
:103960000CDA404203902D20129007E00A210398C0
:10397000FCF7CEFB30317F1E039039701199481E41
:1039800011900029F2DC03980028EFD1791E1298DB
:1039900008703078202108404530BF1E387006A8D6
:1039A000C01BC01D039010980078002800D0012093
:1039B000019941180298C01709180398091804982A
:1039C000401A401E0490E00306D421461A9B199A1F
:1039D000049800F05FF8451910980078002803D08B
:1039E0001A9A199990476D1CE00324D521461A9B19
:1039F000199A049800F04EF845191CE00098002828
:103A000007DB00990598884203DD1598405C1999F9
:103A100001E0199930201A9A904700986D1C401CBB
:103A200000900298401E0290002804D11A9A2E207D
:103A3000199990476D1C0199481E01900029DDDC01
:103A400005E038781A9A7F1C199990476D1C0399E4
:103A5000481E03900029F4DC21461A9B199A049809
:103A6000ACE600002D0000002B000000200000004C
:103A700000000000F8B5044600251E4617468804DD
:103A800004D405E039462020B0476D1C641EF9D5EA
:103A90002846F8BDFFB50446002581B01E46C80380
:103AA00001D5302700E02027880404D505E03846FA
:103AB0000399B0476D1C641EF9D5284605B0F0BDCA
:103AC0000A68531C0B6010707047000070B5044604
:103AD0000E46E5B200BF0C48FEF72DFB0028FAD1D8
:103AE00029460948FEF730FB72B608488068C007CF
:103AF000C00F002804D1012211460448FFF7AAF99B
:103B000062B6204670BD0000400000200038014031
:103B1000FEF71AFF002804D119A0FFF76DFA00BFC5
:103B2000FEE7FEF73BFBFFF7A1F8FCF73BFFFDF7D5
:103B3000B5FDFDF71FFD00BF1C48C068C006C00FE3
:103B40000028F9D0FDF750FDFFF794F817E018486A
:103B50000078002804D0002015490870FEF750FBBB
:103B600014480078002802D000201249087012483A
:103B70000078002801D0FCF74BFFFDF735FDE6E7A4
:103B800053797374656D20496E697469616C697AE3
:103B90006174696F6E206661696C65642E2048618E
:103BA0006C74696E672E0D0A000000000030004042
:103BB00000000020010000201500002053746174F3
:103BC000653A200000000000000000000000000036
:103BD00043757272656E743A2000000000000000A8
:103BE000000000000000000000000000002F0000A6
:103BF00000000700070000147F147F1400242A7FB0
:103C00002A1200626408132300364955225000002E
:103C10000503000000001C224100000041221C009E
:103C20000014083E08140008083E0808000000A020
:103C3000600000080808080800006060000000201C
:103C400010080402003E5149453E0000427F4000FA
:103C5000004261514946002141454B310018141280
:103C60007F10002745454539003C4A49493000014D
:103C70007109050300364949493600064949291E9C
:103C800000003636000000005636000000081422FE
:103C900041000014141414140000412214080002FE
:103CA0000151090600324959513E007C1211127C23
:103CB000007F49494936003E41414122007F414150
:103CC000221C007F49494941007F09090901003E42
:103CD0004149497A007F0808087F0000417F410080
:103CE000002040413F01007F08142241007F4040F6
:103CF0004040007F020C027F007F0408107F003EDE
:103D00004141413E007F09090906003E4151215EC3
:103D1000007F091929460046494949310001017FC0
:103D20000101003F4040403F001F2040201F003F56
:103D30004038403F00631408146300070870080708
:103D400000615149454300007F41410000552A551B
:103D50002A55000041417F00000402010204004096
:103D600040404040000001020400002054545478B8
:103D7000007F4844443800384444442000384444D8
:103D8000487F00385454541800087E090102001876
:103D9000A4A4A47C007F080404780000447D4000B3
:103DA000004080847D00007F102844000000417F97
:103DB0004000007C04180478007C08040478003873
:103DC0004444443800FC242424180018242418FCFB
:103DD000007C0804040800485454542000043F4464
:103DE0004020003C4040207C001C2040201C003C27
:103DF0004030403C004428102844001CA0A0A07C77
:103E0000004464544C4414141414141400000000AE
:103E1000000000000000000000000000000000F8AA
:103E200000000000000000333000000000100C060D
:103E3000100C0600000000000000000040C07840A8
:103E4000C0784000043F04043F040400007088FC74
:103E500008300000001820FF211E0000F008F000CC
:103E6000E018000000211C031E211E0000F008883D
:103E7000700000001E2123241927211010160E00A7
:103E8000000000000000000000000000000000E052
:103E90001804020000000007182040000002041867
:103EA000E00000000040201807000000404080F0C3
:103EB000804040000202010F01020200000000F0F9
:103EC000000000000101011F0101010000000000CD
:103ED0000000000080B07000000000000000000042
:103EE00000000000000101010101010100000000CB
:103EF0000000000000303000000000000000000062
:103F000080601804006018060100000000E010083E
:103F10000810E000000F102020100F00001010F813
:103F2000000000000020203F202000000070080852
:103F300008887000003028242221300000300888D2
:103F4000884830000018202020110E000000C020FA
:103F500010F8000000070424243F240000F808881B
:103F6000880808000019212020110E0000E01088A8
:103F700088180000000F112020110E0000380808DA
:103F8000C83808000000003F0000000000708808EA
:103F900008887000001C222121221C0000E010086B
:103FA0000810E0000000312222110F00000000C0C4
:103FB000C000000000000030300000000000008061
:103FC0000000000000008060000000000000804051
:103FD000201008000001020408102000404040406A
:103FE00040404000040404040404040000081020BD
:103FF0004080000000201008040201000070480802
:104000000808F0000000003036010000C030C82869
:10401000E810E0000718272423140B000000C03824
:10402000E0000000203C23020227382008F888889E
:1040300088700000203F202020110E00C0300808AA
:1040400008083800071820202010080008F8080881
:104050000810E000203F202020100F0008F888887A
:10406000E8081000203F20202320180008F8888846
:10407000E8081000203F200003000000C0300808BE
:104080000838000007182020221E020008F8080047
:104090000008F808203F210101213F20000808F80E
:1040A000080800000020203F202000000000080831
:1040B000F8080800C08080807F00000008F888C0F1
:1040C00028180800203F20012638200008F80800A2
:1040D00000000000203F20202020300008F8F800D9
:1040E000F8F80800203F003F003F200008F830C0EB
:1040F0000008F808203F200007183F00E0100808DB
:104100000810E0000F10202020100F0008F8080809
:104110000808F000203F210101010000E01008081C
:104120000810E0000F18242438504F0008F8888841
:1041300088887000203F2000030C30200070880821
:10414000080838000038202121221C00180808F82F
:10415000080818000000203F2000000008F80800B0
:104160000008F808001F202020201F000878880081
:1041700000C83808000007380E010000F80800F8F1
:104180000008F800033C0700073C0300081868809B
:104190008068180820302C03032C30200838C80011
:1041A000C83808000000203F200000001008080860
:1041B000C83808002038262120201800000000FE02
:1041C000020202000000007F40404000000C30C0AE
:1041D00000000000000000010638C00000020202DA
:1041E000FE000000004040407F000000000004028C
:1041F00002020400000000000000000000000000B7
:1042000000000000808080808080808000020204A6
:10421000000000000000000000000000000080809E
:10422000808000000019242222223F2008F800800C
:1042300080000000003F112020110E0000000080CF
:1042400080800000000E112020201100000000805E
:104250008088F800000E112020103F200000808090
:1042600080800000001F222222221300008080F0A4
:10427000888888180020203F2020000000008080CF
:1042800080808000006B94949493600008F8008014
:1042900080800000203F210000203F20008098986F
:1042A000000000000020203F2020000000000080CF
:1042B0009898000000C08080807F000008F800000F
:1042C00080808000203F24022D302000000808F864
:1042D000000000000020203F20200000808080801F
:1042E00080808000203F20003F20003F80800080B1
:1042F00080800000203F210000203F2000008080BF
:1043000080800000001F202020201F00808000806F
:104310008000000080FFA12020110E00000000801E
:1043200080808000000E112020A0FF80808080000F
:104330008080800020203F2120000100000080803C
:10434000808080000033242424241900008080E031
:10435000808000000000001F2020000080800000FE
:1043600000808000001F202020103F2080808000DF
:104370000080808000010E300806010080800080EF
:10438000008080800F300C030C300F000080800014
:10439000808080000020312E0E312000808080003F
:1043A0000080808080818E701806010000808080EF
:1043B000808080000021302C22213000000000008D
:1043C000807C020200000000003F4040000000002E
:1043D000FF00000000000000FF0000000002027C5F
:1043E000800000000040403F000000000006010186
:1043F000020204040000000000000000040484C461
:10440000A49C85868484A4C4840404000080804025
:10441000300F0000007F808081F000000000F888ED
:10442000888888FF88888888F800000000001F08B6
:104430000808087F888888889F80F0001010D0FFC7
:10444000905020908C838C9020404000040300FF0B
:104450000001003F40444847407000000008300021
:10446000FF20202020FF2020222C20000404020115
:10447000FF8040300E010618204080000004848434
:104480004424548F142444848404000041390000DF
:104490003C4040424C404070040931001010D0FFB5
:1044A000901000FE020202FE00000000040300FF64
:1044B0000083601F0000003F4040780006000000BD
:1044C00006000000060000000600000006000000D4
:1044D00006000000010000000300000002000000D0
:1044E0000400000006000000080000000A000000B0
:1044F0000C0000000E00000010000000534D3A2098
:104500004661756C7420636F6E646974696F6E20A8
:10451000636C656172656420284350205374617434
:10452000652041202620436F6E746163746F722092
:104530004F70656E292E2052657475726E696E67B4
:1045400020746F2049444C452E0A0000534D3A20F8
:104550004368617267696E672053746F7070656439
:1045600020627920455620285374617465204229C1
:104570002E20436F6E746163746F72204F70656E8E
:10458000656420436F6E6669726D65642E0A000073
:10459000534D3A2056656869636C652044697363BE
:1045A0006F6E6E656374656420647572696E6720F2
:1045B0004368617267696E672E20436F6E74616332
:1045C000746F72204F70656E656420436F6E66690C
:1045D000726D65642E0A0000F8450000000000209E
:1045E00040000000F4310000384600004000002088
:1045F000F002000004320000000000000000000093
:1046000000000000000000000000000000000000AA
:10461000000000000000000000000000000000009A
:104620000000000000000000040000000100000085
:08463000006CDC020000000038
:04000005000000C136
:00000001FF
